{
	"multisig_wallet/Multisig.sol": {
		"Ownable": {
			"abi": [
				{
					"inputs": [
						{
							"internalType": "address[]",
							"name": "_owners",
							"type": "address[]"
						}
					],
					"stateMutability": "nonpayable",
					"type": "constructor"
				},
				{
					"anonymous": false,
					"inputs": [
						{
							"indexed": false,
							"internalType": "address",
							"name": "approver",
							"type": "address"
						},
						{
							"indexed": false,
							"internalType": "uint256",
							"name": "_txId",
							"type": "uint256"
						}
					],
					"name": "Approve",
					"type": "event"
				},
				{
					"anonymous": false,
					"inputs": [
						{
							"indexed": false,
							"internalType": "address",
							"name": "_from",
							"type": "address"
						},
						{
							"indexed": false,
							"internalType": "uint256",
							"name": "_amount",
							"type": "uint256"
						}
					],
					"name": "Deposit",
					"type": "event"
				},
				{
					"anonymous": false,
					"inputs": [
						{
							"indexed": false,
							"internalType": "uint256",
							"name": "txId",
							"type": "uint256"
						}
					],
					"name": "Submit",
					"type": "event"
				},
				{
					"inputs": [
						{
							"internalType": "uint256",
							"name": "",
							"type": "uint256"
						}
					],
					"name": "owners",
					"outputs": [
						{
							"internalType": "address",
							"name": "",
							"type": "address"
						}
					],
					"stateMutability": "view",
					"type": "function"
				}
			],
			"devdoc": {
				"kind": "dev",
				"methods": {},
				"version": 1
			},
			"evm": {
				"assembly": "    /* \"multisig_wallet/Multisig.sol\":62:757  contract Ownable {... */\n  mstore(0x40, 0x80)\n    /* \"multisig_wallet/Multisig.sol\":277:655  constructor(address[] memory _owners) {... */\n  callvalue\n  dup1\n  iszero\n  tag_1\n  jumpi\n  0x00\n  dup1\n  revert\ntag_1:\n  pop\n  mload(0x40)\n  sub(codesize, bytecodeSize)\n  dup1\n  bytecodeSize\n  dup4\n  codecopy\n  dup2\n  dup2\n  add\n  0x40\n  mstore\n  dup2\n  add\n  swap1\n  tag_2\n  swap2\n  swap1\n  tag_3\n  jump\t// in\ntag_2:\n    /* \"multisig_wallet/Multisig.sol\":350:351  0 */\n  0x00\n    /* \"multisig_wallet/Multisig.sol\":333:340  _owners */\n  dup2\n    /* \"multisig_wallet/Multisig.sol\":333:347  _owners.length */\n  mload\n    /* \"multisig_wallet/Multisig.sol\":333:351  _owners.length > 0 */\n  gt\n    /* \"multisig_wallet/Multisig.sol\":325:366  require(_owners.length > 0, \"no owners!\") */\n  tag_6\n  jumpi\n  mload(0x40)\n  0x08c379a000000000000000000000000000000000000000000000000000000000\n  dup2\n  mstore\n  0x04\n  add\n  tag_7\n  swap1\n  tag_8\n  jump\t// in\ntag_7:\n  mload(0x40)\n  dup1\n  swap2\n  sub\n  swap1\n  revert\ntag_6:\n    /* \"multisig_wallet/Multisig.sol\":380:386  uint i */\n  0x00\n    /* \"multisig_wallet/Multisig.sol\":376:649  for(uint i = 0; i < _owners.length; i++) {... */\ntag_9:\n    /* \"multisig_wallet/Multisig.sol\":396:403  _owners */\n  dup2\n    /* \"multisig_wallet/Multisig.sol\":396:410  _owners.length */\n  mload\n    /* \"multisig_wallet/Multisig.sol\":392:393  i */\n  dup2\n    /* \"multisig_wallet/Multisig.sol\":392:410  i < _owners.length */\n  lt\n    /* \"multisig_wallet/Multisig.sol\":376:649  for(uint i = 0; i < _owners.length; i++) {... */\n  iszero\n  tag_10\n  jumpi\n    /* \"multisig_wallet/Multisig.sol\":431:444  address owner */\n  0x00\n    /* \"multisig_wallet/Multisig.sol\":447:454  _owners */\n  dup3\n    /* \"multisig_wallet/Multisig.sol\":455:456  i */\n  dup3\n    /* \"multisig_wallet/Multisig.sol\":447:457  _owners[i] */\n  dup2\n  mload\n  dup2\n  lt\n  tag_12\n  jumpi\n  tag_13\n  tag_14\n  jump\t// in\ntag_13:\ntag_12:\n  0x20\n  mul\n  0x20\n  add\n  add\n  mload\n    /* \"multisig_wallet/Multisig.sol\":431:457  address owner = _owners[i] */\n  swap1\n  pop\n    /* \"multisig_wallet/Multisig.sol\":496:497  0 */\n  0x00\n    /* \"multisig_wallet/Multisig.sol\":479:498  owner != address(0) */\n  0xffffffffffffffffffffffffffffffffffffffff\n  and\n    /* \"multisig_wallet/Multisig.sol\":479:484  owner */\n  dup2\n    /* \"multisig_wallet/Multisig.sol\":479:498  owner != address(0) */\n  0xffffffffffffffffffffffffffffffffffffffff\n  and\n  eq\n  iszero\n    /* \"multisig_wallet/Multisig.sol\":471:515  require(owner != address(0), \"zero address\") */\n  tag_15\n  jumpi\n  mload(0x40)\n  0x08c379a000000000000000000000000000000000000000000000000000000000\n  dup2\n  mstore\n  0x04\n  add\n  tag_16\n  swap1\n  tag_17\n  jump\t// in\ntag_16:\n  mload(0x40)\n  dup1\n  swap2\n  sub\n  swap1\n  revert\ntag_15:\n    /* \"multisig_wallet/Multisig.sol\":538:545  isOwner */\n  0x01\n    /* \"multisig_wallet/Multisig.sol\":538:552  isOwner[owner] */\n  0x00\n    /* \"multisig_wallet/Multisig.sol\":546:551  owner */\n  dup3\n    /* \"multisig_wallet/Multisig.sol\":538:552  isOwner[owner] */\n  0xffffffffffffffffffffffffffffffffffffffff\n  and\n  0xffffffffffffffffffffffffffffffffffffffff\n  and\n  dup2\n  mstore\n  0x20\n  add\n  swap1\n  dup2\n  mstore\n  0x20\n  add\n  0x00\n  keccak256\n  0x00\n  swap1\n  sload\n  swap1\n  0x0100\n  exp\n  swap1\n  div\n  0xff\n  and\n    /* \"multisig_wallet/Multisig.sol\":537:552  !isOwner[owner] */\n  iszero\n    /* \"multisig_wallet/Multisig.sol\":529:570  require(!isOwner[owner],\"already owner!\") */\n  tag_18\n  jumpi\n  mload(0x40)\n  0x08c379a000000000000000000000000000000000000000000000000000000000\n  dup2\n  mstore\n  0x04\n  add\n  tag_19\n  swap1\n  tag_20\n  jump\t// in\ntag_19:\n  mload(0x40)\n  dup1\n  swap2\n  sub\n  swap1\n  revert\ntag_18:\n    /* \"multisig_wallet/Multisig.sol\":585:591  owners */\n  0x00\n    /* \"multisig_wallet/Multisig.sol\":597:602  owner */\n  dup2\n    /* \"multisig_wallet/Multisig.sol\":585:603  owners.push(owner) */\n  swap1\n  dup1\n  0x01\n  dup2\n  sload\n  add\n  dup1\n  dup3\n  sstore\n  dup1\n  swap2\n  pop\n  pop\n  0x01\n  swap1\n  sub\n  swap1\n  0x00\n  mstore\n  keccak256(0x00, 0x20)\n  add\n  0x00\n  swap1\n  swap2\n  swap1\n  swap2\n  swap1\n  swap2\n  0x0100\n  exp\n  dup2\n  sload\n  dup2\n  0xffffffffffffffffffffffffffffffffffffffff\n  mul\n  not\n  and\n  swap1\n  dup4\n  0xffffffffffffffffffffffffffffffffffffffff\n  and\n  mul\n  or\n  swap1\n  sstore\n  pop\n    /* \"multisig_wallet/Multisig.sol\":634:638  true */\n  0x01\n    /* \"multisig_wallet/Multisig.sol\":617:624  isOwner */\n  dup1\n    /* \"multisig_wallet/Multisig.sol\":617:631  isOwner[owner] */\n  0x00\n    /* \"multisig_wallet/Multisig.sol\":625:630  owner */\n  dup4\n    /* \"multisig_wallet/Multisig.sol\":617:631  isOwner[owner] */\n  0xffffffffffffffffffffffffffffffffffffffff\n  and\n  0xffffffffffffffffffffffffffffffffffffffff\n  and\n  dup2\n  mstore\n  0x20\n  add\n  swap1\n  dup2\n  mstore\n  0x20\n  add\n  0x00\n  keccak256\n  0x00\n    /* \"multisig_wallet/Multisig.sol\":617:638  isOwner[owner] = true */\n  0x0100\n  exp\n  dup2\n  sload\n  dup2\n  0xff\n  mul\n  not\n  and\n  swap1\n  dup4\n  iszero\n  iszero\n  mul\n  or\n  swap1\n  sstore\n  pop\n    /* \"multisig_wallet/Multisig.sol\":417:649  {... */\n  pop\n    /* \"multisig_wallet/Multisig.sol\":412:415  i++ */\n  dup1\n  dup1\n  tag_22\n  swap1\n  tag_23\n  jump\t// in\ntag_22:\n  swap2\n  pop\n  pop\n    /* \"multisig_wallet/Multisig.sol\":376:649  for(uint i = 0; i < _owners.length; i++) {... */\n  jump(tag_9)\ntag_10:\n  pop\n    /* \"multisig_wallet/Multisig.sol\":277:655  constructor(address[] memory _owners) {... */\n  pop\n    /* \"multisig_wallet/Multisig.sol\":62:757  contract Ownable {... */\n  jump(tag_24)\n    /* \"#utility.yul\":24:768   */\ntag_26:\n    /* \"#utility.yul\":131:136   */\n  0x00\n    /* \"#utility.yul\":156:237   */\n  tag_28\n    /* \"#utility.yul\":172:236   */\n  tag_29\n    /* \"#utility.yul\":229:235   */\n  dup5\n    /* \"#utility.yul\":172:236   */\n  tag_30\n  jump\t// in\ntag_29:\n    /* \"#utility.yul\":156:237   */\n  tag_31\n  jump\t// in\ntag_28:\n    /* \"#utility.yul\":147:237   */\n  swap1\n  pop\n    /* \"#utility.yul\":257:262   */\n  dup1\n    /* \"#utility.yul\":286:292   */\n  dup4\n    /* \"#utility.yul\":279:284   */\n  dup3\n    /* \"#utility.yul\":272:293   */\n  mstore\n    /* \"#utility.yul\":320:324   */\n  0x20\n    /* \"#utility.yul\":313:318   */\n  dup3\n    /* \"#utility.yul\":309:325   */\n  add\n    /* \"#utility.yul\":302:325   */\n  swap1\n  pop\n    /* \"#utility.yul\":346:352   */\n  dup3\n    /* \"#utility.yul\":396:399   */\n  dup6\n    /* \"#utility.yul\":388:392   */\n  0x20\n    /* \"#utility.yul\":380:386   */\n  dup7\n    /* \"#utility.yul\":376:393   */\n  mul\n    /* \"#utility.yul\":371:374   */\n  dup3\n    /* \"#utility.yul\":367:394   */\n  add\n    /* \"#utility.yul\":364:400   */\n  gt\n    /* \"#utility.yul\":361:504   */\n  iszero\n  tag_32\n  jumpi\n    /* \"#utility.yul\":415:494   */\n  tag_33\n  tag_34\n  jump\t// in\ntag_33:\n    /* \"#utility.yul\":361:504   */\ntag_32:\n    /* \"#utility.yul\":528:529   */\n  0x00\n    /* \"#utility.yul\":513:762   */\ntag_35:\n    /* \"#utility.yul\":538:544   */\n  dup6\n    /* \"#utility.yul\":535:536   */\n  dup2\n    /* \"#utility.yul\":532:545   */\n  lt\n    /* \"#utility.yul\":513:762   */\n  iszero\n  tag_37\n  jumpi\n    /* \"#utility.yul\":606:609   */\n  dup2\n    /* \"#utility.yul\":635:683   */\n  tag_38\n    /* \"#utility.yul\":679:682   */\n  dup9\n    /* \"#utility.yul\":667:677   */\n  dup3\n    /* \"#utility.yul\":635:683   */\n  tag_39\n  jump\t// in\ntag_38:\n    /* \"#utility.yul\":630:633   */\n  dup5\n    /* \"#utility.yul\":623:684   */\n  mstore\n    /* \"#utility.yul\":713:717   */\n  0x20\n    /* \"#utility.yul\":708:711   */\n  dup5\n    /* \"#utility.yul\":704:718   */\n  add\n    /* \"#utility.yul\":697:718   */\n  swap4\n  pop\n    /* \"#utility.yul\":747:751   */\n  0x20\n    /* \"#utility.yul\":742:745   */\n  dup4\n    /* \"#utility.yul\":738:752   */\n  add\n    /* \"#utility.yul\":731:752   */\n  swap3\n  pop\n    /* \"#utility.yul\":573:762   */\n  pop\n    /* \"#utility.yul\":560:561   */\n  0x01\n    /* \"#utility.yul\":557:558   */\n  dup2\n    /* \"#utility.yul\":553:562   */\n  add\n    /* \"#utility.yul\":548:562   */\n  swap1\n  pop\n    /* \"#utility.yul\":513:762   */\n  jump(tag_35)\ntag_37:\n    /* \"#utility.yul\":517:531   */\n  pop\n    /* \"#utility.yul\":137:768   */\n  pop\n  pop\n    /* \"#utility.yul\":24:768   */\n  swap4\n  swap3\n  pop\n  pop\n  pop\n  jump\t// out\n    /* \"#utility.yul\":774:917   */\ntag_39:\n    /* \"#utility.yul\":831:836   */\n  0x00\n    /* \"#utility.yul\":862:868   */\n  dup2\n    /* \"#utility.yul\":856:869   */\n  mload\n    /* \"#utility.yul\":847:869   */\n  swap1\n  pop\n    /* \"#utility.yul\":878:911   */\n  tag_41\n    /* \"#utility.yul\":905:910   */\n  dup2\n    /* \"#utility.yul\":878:911   */\n  tag_42\n  jump\t// in\ntag_41:\n    /* \"#utility.yul\":774:917   */\n  swap3\n  swap2\n  pop\n  pop\n  jump\t// out\n    /* \"#utility.yul\":940:1325   */\ntag_43:\n    /* \"#utility.yul\":1022:1027   */\n  0x00\n    /* \"#utility.yul\":1071:1074   */\n  dup3\n    /* \"#utility.yul\":1064:1068   */\n  0x1f\n    /* \"#utility.yul\":1056:1062   */\n  dup4\n    /* \"#utility.yul\":1052:1069   */\n  add\n    /* \"#utility.yul\":1048:1075   */\n  slt\n    /* \"#utility.yul\":1038:1160   */\n  tag_45\n  jumpi\n    /* \"#utility.yul\":1079:1158   */\n  tag_46\n  tag_47\n  jump\t// in\ntag_46:\n    /* \"#utility.yul\":1038:1160   */\ntag_45:\n    /* \"#utility.yul\":1189:1195   */\n  dup2\n    /* \"#utility.yul\":1183:1196   */\n  mload\n    /* \"#utility.yul\":1214:1319   */\n  tag_48\n    /* \"#utility.yul\":1315:1318   */\n  dup5\n    /* \"#utility.yul\":1307:1313   */\n  dup3\n    /* \"#utility.yul\":1300:1304   */\n  0x20\n    /* \"#utility.yul\":1292:1298   */\n  dup7\n    /* \"#utility.yul\":1288:1305   */\n  add\n    /* \"#utility.yul\":1214:1319   */\n  tag_26\n  jump\t// in\ntag_48:\n    /* \"#utility.yul\":1205:1319   */\n  swap2\n  pop\n    /* \"#utility.yul\":1028:1325   */\n  pop\n    /* \"#utility.yul\":940:1325   */\n  swap3\n  swap2\n  pop\n  pop\n  jump\t// out\n    /* \"#utility.yul\":1331:1885   */\ntag_3:\n    /* \"#utility.yul\":1426:1432   */\n  0x00\n    /* \"#utility.yul\":1475:1477   */\n  0x20\n    /* \"#utility.yul\":1463:1472   */\n  dup3\n    /* \"#utility.yul\":1454:1461   */\n  dup5\n    /* \"#utility.yul\":1450:1473   */\n  sub\n    /* \"#utility.yul\":1446:1478   */\n  slt\n    /* \"#utility.yul\":1443:1562   */\n  iszero\n  tag_50\n  jumpi\n    /* \"#utility.yul\":1481:1560   */\n  tag_51\n  tag_52\n  jump\t// in\ntag_51:\n    /* \"#utility.yul\":1443:1562   */\ntag_50:\n    /* \"#utility.yul\":1622:1623   */\n  0x00\n    /* \"#utility.yul\":1611:1620   */\n  dup3\n    /* \"#utility.yul\":1607:1624   */\n  add\n    /* \"#utility.yul\":1601:1625   */\n  mload\n    /* \"#utility.yul\":1652:1670   */\n  0xffffffffffffffff\n    /* \"#utility.yul\":1644:1650   */\n  dup2\n    /* \"#utility.yul\":1641:1671   */\n  gt\n    /* \"#utility.yul\":1638:1755   */\n  iszero\n  tag_53\n  jumpi\n    /* \"#utility.yul\":1674:1753   */\n  tag_54\n  tag_55\n  jump\t// in\ntag_54:\n    /* \"#utility.yul\":1638:1755   */\ntag_53:\n    /* \"#utility.yul\":1779:1868   */\n  tag_56\n    /* \"#utility.yul\":1860:1867   */\n  dup5\n    /* \"#utility.yul\":1851:1857   */\n  dup3\n    /* \"#utility.yul\":1840:1849   */\n  dup6\n    /* \"#utility.yul\":1836:1858   */\n  add\n    /* \"#utility.yul\":1779:1868   */\n  tag_43\n  jump\t// in\ntag_56:\n    /* \"#utility.yul\":1769:1868   */\n  swap2\n  pop\n    /* \"#utility.yul\":1572:1878   */\n  pop\n    /* \"#utility.yul\":1331:1885   */\n  swap3\n  swap2\n  pop\n  pop\n  jump\t// out\n    /* \"#utility.yul\":1891:2257   */\ntag_57:\n    /* \"#utility.yul\":2033:2036   */\n  0x00\n    /* \"#utility.yul\":2054:2121   */\n  tag_59\n    /* \"#utility.yul\":2118:2120   */\n  0x0e\n    /* \"#utility.yul\":2113:2116   */\n  dup4\n    /* \"#utility.yul\":2054:2121   */\n  tag_60\n  jump\t// in\ntag_59:\n    /* \"#utility.yul\":2047:2121   */\n  swap2\n  pop\n    /* \"#utility.yul\":2130:2223   */\n  tag_61\n    /* \"#utility.yul\":2219:2222   */\n  dup3\n    /* \"#utility.yul\":2130:2223   */\n  tag_62\n  jump\t// in\ntag_61:\n    /* \"#utility.yul\":2248:2250   */\n  0x20\n    /* \"#utility.yul\":2243:2246   */\n  dup3\n    /* \"#utility.yul\":2239:2251   */\n  add\n    /* \"#utility.yul\":2232:2251   */\n  swap1\n  pop\n    /* \"#utility.yul\":1891:2257   */\n  swap2\n  swap1\n  pop\n  jump\t// out\n    /* \"#utility.yul\":2263:2629   */\ntag_63:\n    /* \"#utility.yul\":2405:2408   */\n  0x00\n    /* \"#utility.yul\":2426:2493   */\n  tag_65\n    /* \"#utility.yul\":2490:2492   */\n  0x0a\n    /* \"#utility.yul\":2485:2488   */\n  dup4\n    /* \"#utility.yul\":2426:2493   */\n  tag_60\n  jump\t// in\ntag_65:\n    /* \"#utility.yul\":2419:2493   */\n  swap2\n  pop\n    /* \"#utility.yul\":2502:2595   */\n  tag_66\n    /* \"#utility.yul\":2591:2594   */\n  dup3\n    /* \"#utility.yul\":2502:2595   */\n  tag_67\n  jump\t// in\ntag_66:\n    /* \"#utility.yul\":2620:2622   */\n  0x20\n    /* \"#utility.yul\":2615:2618   */\n  dup3\n    /* \"#utility.yul\":2611:2623   */\n  add\n    /* \"#utility.yul\":2604:2623   */\n  swap1\n  pop\n    /* \"#utility.yul\":2263:2629   */\n  swap2\n  swap1\n  pop\n  jump\t// out\n    /* \"#utility.yul\":2635:3001   */\ntag_68:\n    /* \"#utility.yul\":2777:2780   */\n  0x00\n    /* \"#utility.yul\":2798:2865   */\n  tag_70\n    /* \"#utility.yul\":2862:2864   */\n  0x0c\n    /* \"#utility.yul\":2857:2860   */\n  dup4\n    /* \"#utility.yul\":2798:2865   */\n  tag_60\n  jump\t// in\ntag_70:\n    /* \"#utility.yul\":2791:2865   */\n  swap2\n  pop\n    /* \"#utility.yul\":2874:2967   */\n  tag_71\n    /* \"#utility.yul\":2963:2966   */\n  dup3\n    /* \"#utility.yul\":2874:2967   */\n  tag_72\n  jump\t// in\ntag_71:\n    /* \"#utility.yul\":2992:2994   */\n  0x20\n    /* \"#utility.yul\":2987:2990   */\n  dup3\n    /* \"#utility.yul\":2983:2995   */\n  add\n    /* \"#utility.yul\":2976:2995   */\n  swap1\n  pop\n    /* \"#utility.yul\":2635:3001   */\n  swap2\n  swap1\n  pop\n  jump\t// out\n    /* \"#utility.yul\":3007:3426   */\ntag_20:\n    /* \"#utility.yul\":3173:3177   */\n  0x00\n    /* \"#utility.yul\":3211:3213   */\n  0x20\n    /* \"#utility.yul\":3200:3209   */\n  dup3\n    /* \"#utility.yul\":3196:3214   */\n  add\n    /* \"#utility.yul\":3188:3214   */\n  swap1\n  pop\n    /* \"#utility.yul\":3260:3269   */\n  dup2\n    /* \"#utility.yul\":3254:3258   */\n  dup2\n    /* \"#utility.yul\":3250:3270   */\n  sub\n    /* \"#utility.yul\":3246:3247   */\n  0x00\n    /* \"#utility.yul\":3235:3244   */\n  dup4\n    /* \"#utility.yul\":3231:3248   */\n  add\n    /* \"#utility.yul\":3224:3271   */\n  mstore\n    /* \"#utility.yul\":3288:3419   */\n  tag_74\n    /* \"#utility.yul\":3414:3418   */\n  dup2\n    /* \"#utility.yul\":3288:3419   */\n  tag_57\n  jump\t// in\ntag_74:\n    /* \"#utility.yul\":3280:3419   */\n  swap1\n  pop\n    /* \"#utility.yul\":3007:3426   */\n  swap2\n  swap1\n  pop\n  jump\t// out\n    /* \"#utility.yul\":3432:3851   */\ntag_8:\n    /* \"#utility.yul\":3598:3602   */\n  0x00\n    /* \"#utility.yul\":3636:3638   */\n  0x20\n    /* \"#utility.yul\":3625:3634   */\n  dup3\n    /* \"#utility.yul\":3621:3639   */\n  add\n    /* \"#utility.yul\":3613:3639   */\n  swap1\n  pop\n    /* \"#utility.yul\":3685:3694   */\n  dup2\n    /* \"#utility.yul\":3679:3683   */\n  dup2\n    /* \"#utility.yul\":3675:3695   */\n  sub\n    /* \"#utility.yul\":3671:3672   */\n  0x00\n    /* \"#utility.yul\":3660:3669   */\n  dup4\n    /* \"#utility.yul\":3656:3673   */\n  add\n    /* \"#utility.yul\":3649:3696   */\n  mstore\n    /* \"#utility.yul\":3713:3844   */\n  tag_76\n    /* \"#utility.yul\":3839:3843   */\n  dup2\n    /* \"#utility.yul\":3713:3844   */\n  tag_63\n  jump\t// in\ntag_76:\n    /* \"#utility.yul\":3705:3844   */\n  swap1\n  pop\n    /* \"#utility.yul\":3432:3851   */\n  swap2\n  swap1\n  pop\n  jump\t// out\n    /* \"#utility.yul\":3857:4276   */\ntag_17:\n    /* \"#utility.yul\":4023:4027   */\n  0x00\n    /* \"#utility.yul\":4061:4063   */\n  0x20\n    /* \"#utility.yul\":4050:4059   */\n  dup3\n    /* \"#utility.yul\":4046:4064   */\n  add\n    /* \"#utility.yul\":4038:4064   */\n  swap1\n  pop\n    /* \"#utility.yul\":4110:4119   */\n  dup2\n    /* \"#utility.yul\":4104:4108   */\n  dup2\n    /* \"#utility.yul\":4100:4120   */\n  sub\n    /* \"#utility.yul\":4096:4097   */\n  0x00\n    /* \"#utility.yul\":4085:4094   */\n  dup4\n    /* \"#utility.yul\":4081:4098   */\n  add\n    /* \"#utility.yul\":4074:4121   */\n  mstore\n    /* \"#utility.yul\":4138:4269   */\n  tag_78\n    /* \"#utility.yul\":4264:4268   */\n  dup2\n    /* \"#utility.yul\":4138:4269   */\n  tag_68\n  jump\t// in\ntag_78:\n    /* \"#utility.yul\":4130:4269   */\n  swap1\n  pop\n    /* \"#utility.yul\":3857:4276   */\n  swap2\n  swap1\n  pop\n  jump\t// out\n    /* \"#utility.yul\":4282:4411   */\ntag_31:\n    /* \"#utility.yul\":4316:4322   */\n  0x00\n    /* \"#utility.yul\":4343:4363   */\n  tag_80\n  tag_81\n  jump\t// in\ntag_80:\n    /* \"#utility.yul\":4333:4363   */\n  swap1\n  pop\n    /* \"#utility.yul\":4372:4405   */\n  tag_82\n    /* \"#utility.yul\":4400:4404   */\n  dup3\n    /* \"#utility.yul\":4392:4398   */\n  dup3\n    /* \"#utility.yul\":4372:4405   */\n  tag_83\n  jump\t// in\ntag_82:\n    /* \"#utility.yul\":4282:4411   */\n  swap2\n  swap1\n  pop\n  jump\t// out\n    /* \"#utility.yul\":4417:4492   */\ntag_81:\n    /* \"#utility.yul\":4450:4456   */\n  0x00\n    /* \"#utility.yul\":4483:4485   */\n  0x40\n    /* \"#utility.yul\":4477:4486   */\n  mload\n    /* \"#utility.yul\":4467:4486   */\n  swap1\n  pop\n    /* \"#utility.yul\":4417:4492   */\n  swap1\n  jump\t// out\n    /* \"#utility.yul\":4498:4809   */\ntag_30:\n    /* \"#utility.yul\":4575:4579   */\n  0x00\n    /* \"#utility.yul\":4665:4683   */\n  0xffffffffffffffff\n    /* \"#utility.yul\":4657:4663   */\n  dup3\n    /* \"#utility.yul\":4654:4684   */\n  gt\n    /* \"#utility.yul\":4651:4707   */\n  iszero\n  tag_86\n  jumpi\n    /* \"#utility.yul\":4687:4705   */\n  tag_87\n  tag_88\n  jump\t// in\ntag_87:\n    /* \"#utility.yul\":4651:4707   */\ntag_86:\n    /* \"#utility.yul\":4737:4741   */\n  0x20\n    /* \"#utility.yul\":4729:4735   */\n  dup3\n    /* \"#utility.yul\":4725:4742   */\n  mul\n    /* \"#utility.yul\":4717:4742   */\n  swap1\n  pop\n    /* \"#utility.yul\":4797:4801   */\n  0x20\n    /* \"#utility.yul\":4791:4795   */\n  dup2\n    /* \"#utility.yul\":4787:4802   */\n  add\n    /* \"#utility.yul\":4779:4802   */\n  swap1\n  pop\n    /* \"#utility.yul\":4498:4809   */\n  swap2\n  swap1\n  pop\n  jump\t// out\n    /* \"#utility.yul\":4815:4984   */\ntag_60:\n    /* \"#utility.yul\":4899:4910   */\n  0x00\n    /* \"#utility.yul\":4933:4939   */\n  dup3\n    /* \"#utility.yul\":4928:4931   */\n  dup3\n    /* \"#utility.yul\":4921:4940   */\n  mstore\n    /* \"#utility.yul\":4973:4977   */\n  0x20\n    /* \"#utility.yul\":4968:4971   */\n  dup3\n    /* \"#utility.yul\":4964:4978   */\n  add\n    /* \"#utility.yul\":4949:4978   */\n  swap1\n  pop\n    /* \"#utility.yul\":4815:4984   */\n  swap3\n  swap2\n  pop\n  pop\n  jump\t// out\n    /* \"#utility.yul\":4990:5086   */\ntag_90:\n    /* \"#utility.yul\":5027:5034   */\n  0x00\n    /* \"#utility.yul\":5056:5080   */\n  tag_92\n    /* \"#utility.yul\":5074:5079   */\n  dup3\n    /* \"#utility.yul\":5056:5080   */\n  tag_93\n  jump\t// in\ntag_92:\n    /* \"#utility.yul\":5045:5080   */\n  swap1\n  pop\n    /* \"#utility.yul\":4990:5086   */\n  swap2\n  swap1\n  pop\n  jump\t// out\n    /* \"#utility.yul\":5092:5218   */\ntag_93:\n    /* \"#utility.yul\":5129:5136   */\n  0x00\n    /* \"#utility.yul\":5169:5211   */\n  0xffffffffffffffffffffffffffffffffffffffff\n    /* \"#utility.yul\":5162:5167   */\n  dup3\n    /* \"#utility.yul\":5158:5212   */\n  and\n    /* \"#utility.yul\":5147:5212   */\n  swap1\n  pop\n    /* \"#utility.yul\":5092:5218   */\n  swap2\n  swap1\n  pop\n  jump\t// out\n    /* \"#utility.yul\":5224:5301   */\ntag_95:\n    /* \"#utility.yul\":5261:5268   */\n  0x00\n    /* \"#utility.yul\":5290:5295   */\n  dup2\n    /* \"#utility.yul\":5279:5295   */\n  swap1\n  pop\n    /* \"#utility.yul\":5224:5301   */\n  swap2\n  swap1\n  pop\n  jump\t// out\n    /* \"#utility.yul\":5307:5588   */\ntag_83:\n    /* \"#utility.yul\":5390:5417   */\n  tag_98\n    /* \"#utility.yul\":5412:5416   */\n  dup3\n    /* \"#utility.yul\":5390:5417   */\n  tag_99\n  jump\t// in\ntag_98:\n    /* \"#utility.yul\":5382:5388   */\n  dup2\n    /* \"#utility.yul\":5378:5418   */\n  add\n    /* \"#utility.yul\":5520:5526   */\n  dup2\n    /* \"#utility.yul\":5508:5518   */\n  dup2\n    /* \"#utility.yul\":5505:5527   */\n  lt\n    /* \"#utility.yul\":5484:5502   */\n  0xffffffffffffffff\n    /* \"#utility.yul\":5472:5482   */\n  dup3\n    /* \"#utility.yul\":5469:5503   */\n  gt\n    /* \"#utility.yul\":5466:5528   */\n  or\n    /* \"#utility.yul\":5463:5551   */\n  iszero\n  tag_100\n  jumpi\n    /* \"#utility.yul\":5531:5549   */\n  tag_101\n  tag_88\n  jump\t// in\ntag_101:\n    /* \"#utility.yul\":5463:5551   */\ntag_100:\n    /* \"#utility.yul\":5571:5581   */\n  dup1\n    /* \"#utility.yul\":5567:5569   */\n  0x40\n    /* \"#utility.yul\":5560:5582   */\n  mstore\n    /* \"#utility.yul\":5350:5588   */\n  pop\n    /* \"#utility.yul\":5307:5588   */\n  pop\n  pop\n  jump\t// out\n    /* \"#utility.yul\":5594:5827   */\ntag_23:\n    /* \"#utility.yul\":5633:5636   */\n  0x00\n    /* \"#utility.yul\":5656:5680   */\n  tag_103\n    /* \"#utility.yul\":5674:5679   */\n  dup3\n    /* \"#utility.yul\":5656:5680   */\n  tag_95\n  jump\t// in\ntag_103:\n    /* \"#utility.yul\":5647:5680   */\n  swap2\n  pop\n    /* \"#utility.yul\":5702:5768   */\n  0xffffffffffffffffffffffffffffffffffffffffffffffffffffffffffffffff\n    /* \"#utility.yul\":5695:5700   */\n  dup3\n    /* \"#utility.yul\":5692:5769   */\n  eq\n    /* \"#utility.yul\":5689:5792   */\n  iszero\n  tag_104\n  jumpi\n    /* \"#utility.yul\":5772:5790   */\n  tag_105\n  tag_106\n  jump\t// in\ntag_105:\n    /* \"#utility.yul\":5689:5792   */\ntag_104:\n    /* \"#utility.yul\":5819:5820   */\n  0x01\n    /* \"#utility.yul\":5812:5817   */\n  dup3\n    /* \"#utility.yul\":5808:5821   */\n  add\n    /* \"#utility.yul\":5801:5821   */\n  swap1\n  pop\n    /* \"#utility.yul\":5594:5827   */\n  swap2\n  swap1\n  pop\n  jump\t// out\n    /* \"#utility.yul\":5833:6013   */\ntag_106:\n    /* \"#utility.yul\":5881:5958   */\n  0x4e487b7100000000000000000000000000000000000000000000000000000000\n    /* \"#utility.yul\":5878:5879   */\n  0x00\n    /* \"#utility.yul\":5871:5959   */\n  mstore\n    /* \"#utility.yul\":5978:5982   */\n  0x11\n    /* \"#utility.yul\":5975:5976   */\n  0x04\n    /* \"#utility.yul\":5968:5983   */\n  mstore\n    /* \"#utility.yul\":6002:6006   */\n  0x24\n    /* \"#utility.yul\":5999:6000   */\n  0x00\n    /* \"#utility.yul\":5992:6007   */\n  revert\n    /* \"#utility.yul\":6019:6199   */\ntag_14:\n    /* \"#utility.yul\":6067:6144   */\n  0x4e487b7100000000000000000000000000000000000000000000000000000000\n    /* \"#utility.yul\":6064:6065   */\n  0x00\n    /* \"#utility.yul\":6057:6145   */\n  mstore\n    /* \"#utility.yul\":6164:6168   */\n  0x32\n    /* \"#utility.yul\":6161:6162   */\n  0x04\n    /* \"#utility.yul\":6154:6169   */\n  mstore\n    /* \"#utility.yul\":6188:6192   */\n  0x24\n    /* \"#utility.yul\":6185:6186   */\n  0x00\n    /* \"#utility.yul\":6178:6193   */\n  revert\n    /* \"#utility.yul\":6205:6385   */\ntag_88:\n    /* \"#utility.yul\":6253:6330   */\n  0x4e487b7100000000000000000000000000000000000000000000000000000000\n    /* \"#utility.yul\":6250:6251   */\n  0x00\n    /* \"#utility.yul\":6243:6331   */\n  mstore\n    /* \"#utility.yul\":6350:6354   */\n  0x41\n    /* \"#utility.yul\":6347:6348   */\n  0x04\n    /* \"#utility.yul\":6340:6355   */\n  mstore\n    /* \"#utility.yul\":6374:6378   */\n  0x24\n    /* \"#utility.yul\":6371:6372   */\n  0x00\n    /* \"#utility.yul\":6364:6379   */\n  revert\n    /* \"#utility.yul\":6391:6508   */\ntag_47:\n    /* \"#utility.yul\":6500:6501   */\n  0x00\n    /* \"#utility.yul\":6497:6498   */\n  dup1\n    /* \"#utility.yul\":6490:6502   */\n  revert\n    /* \"#utility.yul\":6514:6631   */\ntag_34:\n    /* \"#utility.yul\":6623:6624   */\n  0x00\n    /* \"#utility.yul\":6620:6621   */\n  dup1\n    /* \"#utility.yul\":6613:6625   */\n  revert\n    /* \"#utility.yul\":6637:6754   */\ntag_55:\n    /* \"#utility.yul\":6746:6747   */\n  0x00\n    /* \"#utility.yul\":6743:6744   */\n  dup1\n    /* \"#utility.yul\":6736:6748   */\n  revert\n    /* \"#utility.yul\":6760:6877   */\ntag_52:\n    /* \"#utility.yul\":6869:6870   */\n  0x00\n    /* \"#utility.yul\":6866:6867   */\n  dup1\n    /* \"#utility.yul\":6859:6871   */\n  revert\n    /* \"#utility.yul\":6883:6985   */\ntag_99:\n    /* \"#utility.yul\":6924:6930   */\n  0x00\n    /* \"#utility.yul\":6975:6977   */\n  0x1f\n    /* \"#utility.yul\":6971:6978   */\n  not\n    /* \"#utility.yul\":6966:6968   */\n  0x1f\n    /* \"#utility.yul\":6959:6964   */\n  dup4\n    /* \"#utility.yul\":6955:6969   */\n  add\n    /* \"#utility.yul\":6951:6979   */\n  and\n    /* \"#utility.yul\":6941:6979   */\n  swap1\n  pop\n    /* \"#utility.yul\":6883:6985   */\n  swap2\n  swap1\n  pop\n  jump\t// out\n    /* \"#utility.yul\":6991:7155   */\ntag_62:\n    /* \"#utility.yul\":7131:7147   */\n  0x616c7265616479206f776e657221000000000000000000000000000000000000\n    /* \"#utility.yul\":7127:7128   */\n  0x00\n    /* \"#utility.yul\":7119:7125   */\n  dup3\n    /* \"#utility.yul\":7115:7129   */\n  add\n    /* \"#utility.yul\":7108:7148   */\n  mstore\n    /* \"#utility.yul\":6991:7155   */\n  pop\n  jump\t// out\n    /* \"#utility.yul\":7161:7321   */\ntag_67:\n    /* \"#utility.yul\":7301:7313   */\n  0x6e6f206f776e6572732100000000000000000000000000000000000000000000\n    /* \"#utility.yul\":7297:7298   */\n  0x00\n    /* \"#utility.yul\":7289:7295   */\n  dup3\n    /* \"#utility.yul\":7285:7299   */\n  add\n    /* \"#utility.yul\":7278:7314   */\n  mstore\n    /* \"#utility.yul\":7161:7321   */\n  pop\n  jump\t// out\n    /* \"#utility.yul\":7327:7489   */\ntag_72:\n    /* \"#utility.yul\":7467:7481   */\n  0x7a65726f20616464726573730000000000000000000000000000000000000000\n    /* \"#utility.yul\":7463:7464   */\n  0x00\n    /* \"#utility.yul\":7455:7461   */\n  dup3\n    /* \"#utility.yul\":7451:7465   */\n  add\n    /* \"#utility.yul\":7444:7482   */\n  mstore\n    /* \"#utility.yul\":7327:7489   */\n  pop\n  jump\t// out\n    /* \"#utility.yul\":7495:7617   */\ntag_42:\n    /* \"#utility.yul\":7568:7592   */\n  tag_119\n    /* \"#utility.yul\":7586:7591   */\n  dup2\n    /* \"#utility.yul\":7568:7592   */\n  tag_90\n  jump\t// in\ntag_119:\n    /* \"#utility.yul\":7561:7566   */\n  dup2\n    /* \"#utility.yul\":7558:7593   */\n  eq\n    /* \"#utility.yul\":7548:7611   */\n  tag_120\n  jumpi\n    /* \"#utility.yul\":7607:7608   */\n  0x00\n    /* \"#utility.yul\":7604:7605   */\n  dup1\n    /* \"#utility.yul\":7597:7609   */\n  revert\n    /* \"#utility.yul\":7548:7611   */\ntag_120:\n    /* \"#utility.yul\":7495:7617   */\n  pop\n  jump\t// out\n    /* \"multisig_wallet/Multisig.sol\":62:757  contract Ownable {... */\ntag_24:\n  dataSize(sub_0)\n  dup1\n  dataOffset(sub_0)\n  0x00\n  codecopy\n  0x00\n  return\nstop\n\nsub_0: assembly {\n        /* \"multisig_wallet/Multisig.sol\":62:757  contract Ownable {... */\n      mstore(0x40, 0x80)\n      callvalue\n      dup1\n      iszero\n      tag_1\n      jumpi\n      0x00\n      dup1\n      revert\n    tag_1:\n      pop\n      jumpi(tag_2, lt(calldatasize, 0x04))\n      shr(0xe0, calldataload(0x00))\n      dup1\n      0x025e7c27\n      eq\n      tag_3\n      jumpi\n    tag_2:\n      0x00\n      dup1\n      revert\n        /* \"multisig_wallet/Multisig.sol\":85:108  address[] public owners */\n    tag_3:\n      tag_4\n      0x04\n      dup1\n      calldatasize\n      sub\n      dup2\n      add\n      swap1\n      tag_5\n      swap2\n      swap1\n      tag_6\n      jump\t// in\n    tag_5:\n      tag_7\n      jump\t// in\n    tag_4:\n      mload(0x40)\n      tag_8\n      swap2\n      swap1\n      tag_9\n      jump\t// in\n    tag_8:\n      mload(0x40)\n      dup1\n      swap2\n      sub\n      swap1\n      return\n    tag_7:\n      0x00\n      dup2\n      dup2\n      sload\n      dup2\n      lt\n      tag_10\n      jumpi\n      0x00\n      dup1\n      revert\n    tag_10:\n      swap1\n      0x00\n      mstore\n      keccak256(0x00, 0x20)\n      add\n      0x00\n      swap2\n      pop\n      sload\n      swap1\n      0x0100\n      exp\n      swap1\n      div\n      0xffffffffffffffffffffffffffffffffffffffff\n      and\n      dup2\n      jump\t// out\n        /* \"#utility.yul\":7:146   */\n    tag_13:\n        /* \"#utility.yul\":53:58   */\n      0x00\n        /* \"#utility.yul\":91:97   */\n      dup2\n        /* \"#utility.yul\":78:98   */\n      calldataload\n        /* \"#utility.yul\":69:98   */\n      swap1\n      pop\n        /* \"#utility.yul\":107:140   */\n      tag_15\n        /* \"#utility.yul\":134:139   */\n      dup2\n        /* \"#utility.yul\":107:140   */\n      tag_16\n      jump\t// in\n    tag_15:\n        /* \"#utility.yul\":7:146   */\n      swap3\n      swap2\n      pop\n      pop\n      jump\t// out\n        /* \"#utility.yul\":152:481   */\n    tag_6:\n        /* \"#utility.yul\":211:217   */\n      0x00\n        /* \"#utility.yul\":260:262   */\n      0x20\n        /* \"#utility.yul\":248:257   */\n      dup3\n        /* \"#utility.yul\":239:246   */\n      dup5\n        /* \"#utility.yul\":235:258   */\n      sub\n        /* \"#utility.yul\":231:263   */\n      slt\n        /* \"#utility.yul\":228:347   */\n      iszero\n      tag_18\n      jumpi\n        /* \"#utility.yul\":266:345   */\n      tag_19\n      tag_20\n      jump\t// in\n    tag_19:\n        /* \"#utility.yul\":228:347   */\n    tag_18:\n        /* \"#utility.yul\":386:387   */\n      0x00\n        /* \"#utility.yul\":411:464   */\n      tag_21\n        /* \"#utility.yul\":456:463   */\n      dup5\n        /* \"#utility.yul\":447:453   */\n      dup3\n        /* \"#utility.yul\":436:445   */\n      dup6\n        /* \"#utility.yul\":432:454   */\n      add\n        /* \"#utility.yul\":411:464   */\n      tag_13\n      jump\t// in\n    tag_21:\n        /* \"#utility.yul\":401:464   */\n      swap2\n      pop\n        /* \"#utility.yul\":357:474   */\n      pop\n        /* \"#utility.yul\":152:481   */\n      swap3\n      swap2\n      pop\n      pop\n      jump\t// out\n        /* \"#utility.yul\":487:605   */\n    tag_22:\n        /* \"#utility.yul\":574:598   */\n      tag_24\n        /* \"#utility.yul\":592:597   */\n      dup2\n        /* \"#utility.yul\":574:598   */\n      tag_25\n      jump\t// in\n    tag_24:\n        /* \"#utility.yul\":569:572   */\n      dup3\n        /* \"#utility.yul\":562:599   */\n      mstore\n        /* \"#utility.yul\":487:605   */\n      pop\n      pop\n      jump\t// out\n        /* \"#utility.yul\":611:833   */\n    tag_9:\n        /* \"#utility.yul\":704:708   */\n      0x00\n        /* \"#utility.yul\":742:744   */\n      0x20\n        /* \"#utility.yul\":731:740   */\n      dup3\n        /* \"#utility.yul\":727:745   */\n      add\n        /* \"#utility.yul\":719:745   */\n      swap1\n      pop\n        /* \"#utility.yul\":755:826   */\n      tag_27\n        /* \"#utility.yul\":823:824   */\n      0x00\n        /* \"#utility.yul\":812:821   */\n      dup4\n        /* \"#utility.yul\":808:825   */\n      add\n        /* \"#utility.yul\":799:805   */\n      dup5\n        /* \"#utility.yul\":755:826   */\n      tag_22\n      jump\t// in\n    tag_27:\n        /* \"#utility.yul\":611:833   */\n      swap3\n      swap2\n      pop\n      pop\n      jump\t// out\n        /* \"#utility.yul\":920:1016   */\n    tag_25:\n        /* \"#utility.yul\":957:964   */\n      0x00\n        /* \"#utility.yul\":986:1010   */\n      tag_31\n        /* \"#utility.yul\":1004:1009   */\n      dup3\n        /* \"#utility.yul\":986:1010   */\n      tag_32\n      jump\t// in\n    tag_31:\n        /* \"#utility.yul\":975:1010   */\n      swap1\n      pop\n        /* \"#utility.yul\":920:1016   */\n      swap2\n      swap1\n      pop\n      jump\t// out\n        /* \"#utility.yul\":1022:1148   */\n    tag_32:\n        /* \"#utility.yul\":1059:1066   */\n      0x00\n        /* \"#utility.yul\":1099:1141   */\n      0xffffffffffffffffffffffffffffffffffffffff\n        /* \"#utility.yul\":1092:1097   */\n      dup3\n        /* \"#utility.yul\":1088:1142   */\n      and\n        /* \"#utility.yul\":1077:1142   */\n      swap1\n      pop\n        /* \"#utility.yul\":1022:1148   */\n      swap2\n      swap1\n      pop\n      jump\t// out\n        /* \"#utility.yul\":1154:1231   */\n    tag_34:\n        /* \"#utility.yul\":1191:1198   */\n      0x00\n        /* \"#utility.yul\":1220:1225   */\n      dup2\n        /* \"#utility.yul\":1209:1225   */\n      swap1\n      pop\n        /* \"#utility.yul\":1154:1231   */\n      swap2\n      swap1\n      pop\n      jump\t// out\n        /* \"#utility.yul\":1360:1477   */\n    tag_20:\n        /* \"#utility.yul\":1469:1470   */\n      0x00\n        /* \"#utility.yul\":1466:1467   */\n      dup1\n        /* \"#utility.yul\":1459:1471   */\n      revert\n        /* \"#utility.yul\":1483:1605   */\n    tag_16:\n        /* \"#utility.yul\":1556:1580   */\n      tag_40\n        /* \"#utility.yul\":1574:1579   */\n      dup2\n        /* \"#utility.yul\":1556:1580   */\n      tag_34\n      jump\t// in\n    tag_40:\n        /* \"#utility.yul\":1549:1554   */\n      dup2\n        /* \"#utility.yul\":1546:1581   */\n      eq\n        /* \"#utility.yul\":1536:1599   */\n      tag_41\n      jumpi\n        /* \"#utility.yul\":1595:1596   */\n      0x00\n        /* \"#utility.yul\":1592:1593   */\n      dup1\n        /* \"#utility.yul\":1585:1597   */\n      revert\n        /* \"#utility.yul\":1536:1599   */\n    tag_41:\n        /* \"#utility.yul\":1483:1605   */\n      pop\n      jump\t// out\n\n    auxdata: 0xa26469706673582212203f19ae302f1ab6943ce618eb263ca61d1d8dcd6acedfbdc17c08ddabbb02e33d64736f6c63430008070033\n}\n",
				"bytecode": {
					"linkReferences": {},
					"object": "608060405234801561001057600080fd5b5060405161083c38038061083c83398181016040528101906100329190610326565b6000815111610076576040517f08c379a000000000000000000000000000000000000000000000000000000000815260040161006d906103f8565b60405180910390fd5b60005b815181101561026c5760008282815181106100975761009661057f565b5b60200260200101519050600073ffffffffffffffffffffffffffffffffffffffff168173ffffffffffffffffffffffffffffffffffffffff161415610111576040517f08c379a000000000000000000000000000000000000000000000000000000000815260040161010890610418565b60405180910390fd5b600160008273ffffffffffffffffffffffffffffffffffffffff1673ffffffffffffffffffffffffffffffffffffffff16815260200190815260200160002060009054906101000a900460ff161561019e576040517f08c379a0000000000000000000000000000000000000000000000000000000008152600401610195906103d8565b60405180910390fd5b6000819080600181540180825580915050600190039060005260206000200160009091909190916101000a81548173ffffffffffffffffffffffffffffffffffffffff021916908373ffffffffffffffffffffffffffffffffffffffff16021790555060018060008373ffffffffffffffffffffffffffffffffffffffff1673ffffffffffffffffffffffffffffffffffffffff16815260200190815260200160002060006101000a81548160ff02191690831515021790555050808061026490610507565b915050610079565b5050610694565b60006102866102818461045d565b610438565b905080838252602082019050828560208602820111156102a9576102a86105e2565b5b60005b858110156102d957816102bf88826102e3565b8452602084019350602083019250506001810190506102ac565b5050509392505050565b6000815190506102f28161067d565b92915050565b600082601f83011261030d5761030c6105dd565b5b815161031d848260208601610273565b91505092915050565b60006020828403121561033c5761033b6105ec565b5b600082015167ffffffffffffffff81111561035a576103596105e7565b5b610366848285016102f8565b91505092915050565b600061037c600e83610489565b915061038782610602565b602082019050919050565b600061039f600a83610489565b91506103aa8261062b565b602082019050919050565b60006103c2600c83610489565b91506103cd82610654565b602082019050919050565b600060208201905081810360008301526103f18161036f565b9050919050565b6000602082019050818103600083015261041181610392565b9050919050565b60006020820190508181036000830152610431816103b5565b9050919050565b6000610442610453565b905061044e82826104d6565b919050565b6000604051905090565b600067ffffffffffffffff821115610478576104776105ae565b5b602082029050602081019050919050565b600082825260208201905092915050565b60006104a5826104ac565b9050919050565b600073ffffffffffffffffffffffffffffffffffffffff82169050919050565b6000819050919050565b6104df826105f1565b810181811067ffffffffffffffff821117156104fe576104fd6105ae565b5b80604052505050565b6000610512826104cc565b91507fffffffffffffffffffffffffffffffffffffffffffffffffffffffffffffffff82141561054557610544610550565b5b600182019050919050565b7f4e487b7100000000000000000000000000000000000000000000000000000000600052601160045260246000fd5b7f4e487b7100000000000000000000000000000000000000000000000000000000600052603260045260246000fd5b7f4e487b7100000000000000000000000000000000000000000000000000000000600052604160045260246000fd5b600080fd5b600080fd5b600080fd5b600080fd5b6000601f19601f8301169050919050565b7f616c7265616479206f776e657221000000000000000000000000000000000000600082015250565b7f6e6f206f776e6572732100000000000000000000000000000000000000000000600082015250565b7f7a65726f20616464726573730000000000000000000000000000000000000000600082015250565b6106868161049a565b811461069157600080fd5b50565b610199806106a36000396000f3fe608060405234801561001057600080fd5b506004361061002b5760003560e01c8063025e7c2714610030575b600080fd5b61004a600480360381019061004591906100b4565b610060565b60405161005791906100f0565b60405180910390f35b6000818154811061007057600080fd5b906000526020600020016000915054906101000a900473ffffffffffffffffffffffffffffffffffffffff1681565b6000813590506100ae8161014c565b92915050565b6000602082840312156100ca576100c9610147565b5b60006100d88482850161009f565b91505092915050565b6100ea8161010b565b82525050565b600060208201905061010560008301846100e1565b92915050565b60006101168261011d565b9050919050565b600073ffffffffffffffffffffffffffffffffffffffff82169050919050565b6000819050919050565b600080fd5b6101558161013d565b811461016057600080fd5b5056fea26469706673582212203f19ae302f1ab6943ce618eb263ca61d1d8dcd6acedfbdc17c08ddabbb02e33d64736f6c63430008070033",
					"opcodes": "PUSH1 0x80 PUSH1 0x40 MSTORE CALLVALUE DUP1 ISZERO PUSH2 0x10 JUMPI PUSH1 0x0 DUP1 REVERT JUMPDEST POP PUSH1 0x40 MLOAD PUSH2 0x83C CODESIZE SUB DUP1 PUSH2 0x83C DUP4 CODECOPY DUP2 DUP2 ADD PUSH1 0x40 MSTORE DUP2 ADD SWAP1 PUSH2 0x32 SWAP2 SWAP1 PUSH2 0x326 JUMP JUMPDEST PUSH1 0x0 DUP2 MLOAD GT PUSH2 0x76 JUMPI PUSH1 0x40 MLOAD PUSH32 0x8C379A000000000000000000000000000000000000000000000000000000000 DUP2 MSTORE PUSH1 0x4 ADD PUSH2 0x6D SWAP1 PUSH2 0x3F8 JUMP JUMPDEST PUSH1 0x40 MLOAD DUP1 SWAP2 SUB SWAP1 REVERT JUMPDEST PUSH1 0x0 JUMPDEST DUP2 MLOAD DUP2 LT ISZERO PUSH2 0x26C JUMPI PUSH1 0x0 DUP3 DUP3 DUP2 MLOAD DUP2 LT PUSH2 0x97 JUMPI PUSH2 0x96 PUSH2 0x57F JUMP JUMPDEST JUMPDEST PUSH1 0x20 MUL PUSH1 0x20 ADD ADD MLOAD SWAP1 POP PUSH1 0x0 PUSH20 0xFFFFFFFFFFFFFFFFFFFFFFFFFFFFFFFFFFFFFFFF AND DUP2 PUSH20 0xFFFFFFFFFFFFFFFFFFFFFFFFFFFFFFFFFFFFFFFF AND EQ ISZERO PUSH2 0x111 JUMPI PUSH1 0x40 MLOAD PUSH32 0x8C379A000000000000000000000000000000000000000000000000000000000 DUP2 MSTORE PUSH1 0x4 ADD PUSH2 0x108 SWAP1 PUSH2 0x418 JUMP JUMPDEST PUSH1 0x40 MLOAD DUP1 SWAP2 SUB SWAP1 REVERT JUMPDEST PUSH1 0x1 PUSH1 0x0 DUP3 PUSH20 0xFFFFFFFFFFFFFFFFFFFFFFFFFFFFFFFFFFFFFFFF AND PUSH20 0xFFFFFFFFFFFFFFFFFFFFFFFFFFFFFFFFFFFFFFFF AND DUP2 MSTORE PUSH1 0x20 ADD SWAP1 DUP2 MSTORE PUSH1 0x20 ADD PUSH1 0x0 KECCAK256 PUSH1 0x0 SWAP1 SLOAD SWAP1 PUSH2 0x100 EXP SWAP1 DIV PUSH1 0xFF AND ISZERO PUSH2 0x19E JUMPI PUSH1 0x40 MLOAD PUSH32 0x8C379A000000000000000000000000000000000000000000000000000000000 DUP2 MSTORE PUSH1 0x4 ADD PUSH2 0x195 SWAP1 PUSH2 0x3D8 JUMP JUMPDEST PUSH1 0x40 MLOAD DUP1 SWAP2 SUB SWAP1 REVERT JUMPDEST PUSH1 0x0 DUP2 SWAP1 DUP1 PUSH1 0x1 DUP2 SLOAD ADD DUP1 DUP3 SSTORE DUP1 SWAP2 POP POP PUSH1 0x1 SWAP1 SUB SWAP1 PUSH1 0x0 MSTORE PUSH1 0x20 PUSH1 0x0 KECCAK256 ADD PUSH1 0x0 SWAP1 SWAP2 SWAP1 SWAP2 SWAP1 SWAP2 PUSH2 0x100 EXP DUP2 SLOAD DUP2 PUSH20 0xFFFFFFFFFFFFFFFFFFFFFFFFFFFFFFFFFFFFFFFF MUL NOT AND SWAP1 DUP4 PUSH20 0xFFFFFFFFFFFFFFFFFFFFFFFFFFFFFFFFFFFFFFFF AND MUL OR SWAP1 SSTORE POP PUSH1 0x1 DUP1 PUSH1 0x0 DUP4 PUSH20 0xFFFFFFFFFFFFFFFFFFFFFFFFFFFFFFFFFFFFFFFF AND PUSH20 0xFFFFFFFFFFFFFFFFFFFFFFFFFFFFFFFFFFFFFFFF AND DUP2 MSTORE PUSH1 0x20 ADD SWAP1 DUP2 MSTORE PUSH1 0x20 ADD PUSH1 0x0 KECCAK256 PUSH1 0x0 PUSH2 0x100 EXP DUP2 SLOAD DUP2 PUSH1 0xFF MUL NOT AND SWAP1 DUP4 ISZERO ISZERO MUL OR SWAP1 SSTORE POP POP DUP1 DUP1 PUSH2 0x264 SWAP1 PUSH2 0x507 JUMP JUMPDEST SWAP2 POP POP PUSH2 0x79 JUMP JUMPDEST POP POP PUSH2 0x694 JUMP JUMPDEST PUSH1 0x0 PUSH2 0x286 PUSH2 0x281 DUP5 PUSH2 0x45D JUMP JUMPDEST PUSH2 0x438 JUMP JUMPDEST SWAP1 POP DUP1 DUP4 DUP3 MSTORE PUSH1 0x20 DUP3 ADD SWAP1 POP DUP3 DUP6 PUSH1 0x20 DUP7 MUL DUP3 ADD GT ISZERO PUSH2 0x2A9 JUMPI PUSH2 0x2A8 PUSH2 0x5E2 JUMP JUMPDEST JUMPDEST PUSH1 0x0 JUMPDEST DUP6 DUP2 LT ISZERO PUSH2 0x2D9 JUMPI DUP2 PUSH2 0x2BF DUP9 DUP3 PUSH2 0x2E3 JUMP JUMPDEST DUP5 MSTORE PUSH1 0x20 DUP5 ADD SWAP4 POP PUSH1 0x20 DUP4 ADD SWAP3 POP POP PUSH1 0x1 DUP2 ADD SWAP1 POP PUSH2 0x2AC JUMP JUMPDEST POP POP POP SWAP4 SWAP3 POP POP POP JUMP JUMPDEST PUSH1 0x0 DUP2 MLOAD SWAP1 POP PUSH2 0x2F2 DUP2 PUSH2 0x67D JUMP JUMPDEST SWAP3 SWAP2 POP POP JUMP JUMPDEST PUSH1 0x0 DUP3 PUSH1 0x1F DUP4 ADD SLT PUSH2 0x30D JUMPI PUSH2 0x30C PUSH2 0x5DD JUMP JUMPDEST JUMPDEST DUP2 MLOAD PUSH2 0x31D DUP5 DUP3 PUSH1 0x20 DUP7 ADD PUSH2 0x273 JUMP JUMPDEST SWAP2 POP POP SWAP3 SWAP2 POP POP JUMP JUMPDEST PUSH1 0x0 PUSH1 0x20 DUP3 DUP5 SUB SLT ISZERO PUSH2 0x33C JUMPI PUSH2 0x33B PUSH2 0x5EC JUMP JUMPDEST JUMPDEST PUSH1 0x0 DUP3 ADD MLOAD PUSH8 0xFFFFFFFFFFFFFFFF DUP2 GT ISZERO PUSH2 0x35A JUMPI PUSH2 0x359 PUSH2 0x5E7 JUMP JUMPDEST JUMPDEST PUSH2 0x366 DUP5 DUP3 DUP6 ADD PUSH2 0x2F8 JUMP JUMPDEST SWAP2 POP POP SWAP3 SWAP2 POP POP JUMP JUMPDEST PUSH1 0x0 PUSH2 0x37C PUSH1 0xE DUP4 PUSH2 0x489 JUMP JUMPDEST SWAP2 POP PUSH2 0x387 DUP3 PUSH2 0x602 JUMP JUMPDEST PUSH1 0x20 DUP3 ADD SWAP1 POP SWAP2 SWAP1 POP JUMP JUMPDEST PUSH1 0x0 PUSH2 0x39F PUSH1 0xA DUP4 PUSH2 0x489 JUMP JUMPDEST SWAP2 POP PUSH2 0x3AA DUP3 PUSH2 0x62B JUMP JUMPDEST PUSH1 0x20 DUP3 ADD SWAP1 POP SWAP2 SWAP1 POP JUMP JUMPDEST PUSH1 0x0 PUSH2 0x3C2 PUSH1 0xC DUP4 PUSH2 0x489 JUMP JUMPDEST SWAP2 POP PUSH2 0x3CD DUP3 PUSH2 0x654 JUMP JUMPDEST PUSH1 0x20 DUP3 ADD SWAP1 POP SWAP2 SWAP1 POP JUMP JUMPDEST PUSH1 0x0 PUSH1 0x20 DUP3 ADD SWAP1 POP DUP2 DUP2 SUB PUSH1 0x0 DUP4 ADD MSTORE PUSH2 0x3F1 DUP2 PUSH2 0x36F JUMP JUMPDEST SWAP1 POP SWAP2 SWAP1 POP JUMP JUMPDEST PUSH1 0x0 PUSH1 0x20 DUP3 ADD SWAP1 POP DUP2 DUP2 SUB PUSH1 0x0 DUP4 ADD MSTORE PUSH2 0x411 DUP2 PUSH2 0x392 JUMP JUMPDEST SWAP1 POP SWAP2 SWAP1 POP JUMP JUMPDEST PUSH1 0x0 PUSH1 0x20 DUP3 ADD SWAP1 POP DUP2 DUP2 SUB PUSH1 0x0 DUP4 ADD MSTORE PUSH2 0x431 DUP2 PUSH2 0x3B5 JUMP JUMPDEST SWAP1 POP SWAP2 SWAP1 POP JUMP JUMPDEST PUSH1 0x0 PUSH2 0x442 PUSH2 0x453 JUMP JUMPDEST SWAP1 POP PUSH2 0x44E DUP3 DUP3 PUSH2 0x4D6 JUMP JUMPDEST SWAP2 SWAP1 POP JUMP JUMPDEST PUSH1 0x0 PUSH1 0x40 MLOAD SWAP1 POP SWAP1 JUMP JUMPDEST PUSH1 0x0 PUSH8 0xFFFFFFFFFFFFFFFF DUP3 GT ISZERO PUSH2 0x478 JUMPI PUSH2 0x477 PUSH2 0x5AE JUMP JUMPDEST JUMPDEST PUSH1 0x20 DUP3 MUL SWAP1 POP PUSH1 0x20 DUP2 ADD SWAP1 POP SWAP2 SWAP1 POP JUMP JUMPDEST PUSH1 0x0 DUP3 DUP3 MSTORE PUSH1 0x20 DUP3 ADD SWAP1 POP SWAP3 SWAP2 POP POP JUMP JUMPDEST PUSH1 0x0 PUSH2 0x4A5 DUP3 PUSH2 0x4AC JUMP JUMPDEST SWAP1 POP SWAP2 SWAP1 POP JUMP JUMPDEST PUSH1 0x0 PUSH20 0xFFFFFFFFFFFFFFFFFFFFFFFFFFFFFFFFFFFFFFFF DUP3 AND SWAP1 POP SWAP2 SWAP1 POP JUMP JUMPDEST PUSH1 0x0 DUP2 SWAP1 POP SWAP2 SWAP1 POP JUMP JUMPDEST PUSH2 0x4DF DUP3 PUSH2 0x5F1 JUMP JUMPDEST DUP2 ADD DUP2 DUP2 LT PUSH8 0xFFFFFFFFFFFFFFFF DUP3 GT OR ISZERO PUSH2 0x4FE JUMPI PUSH2 0x4FD PUSH2 0x5AE JUMP JUMPDEST JUMPDEST DUP1 PUSH1 0x40 MSTORE POP POP POP JUMP JUMPDEST PUSH1 0x0 PUSH2 0x512 DUP3 PUSH2 0x4CC JUMP JUMPDEST SWAP2 POP PUSH32 0xFFFFFFFFFFFFFFFFFFFFFFFFFFFFFFFFFFFFFFFFFFFFFFFFFFFFFFFFFFFFFFFF DUP3 EQ ISZERO PUSH2 0x545 JUMPI PUSH2 0x544 PUSH2 0x550 JUMP JUMPDEST JUMPDEST PUSH1 0x1 DUP3 ADD SWAP1 POP SWAP2 SWAP1 POP JUMP JUMPDEST PUSH32 0x4E487B7100000000000000000000000000000000000000000000000000000000 PUSH1 0x0 MSTORE PUSH1 0x11 PUSH1 0x4 MSTORE PUSH1 0x24 PUSH1 0x0 REVERT JUMPDEST PUSH32 0x4E487B7100000000000000000000000000000000000000000000000000000000 PUSH1 0x0 MSTORE PUSH1 0x32 PUSH1 0x4 MSTORE PUSH1 0x24 PUSH1 0x0 REVERT JUMPDEST PUSH32 0x4E487B7100000000000000000000000000000000000000000000000000000000 PUSH1 0x0 MSTORE PUSH1 0x41 PUSH1 0x4 MSTORE PUSH1 0x24 PUSH1 0x0 REVERT JUMPDEST PUSH1 0x0 DUP1 REVERT JUMPDEST PUSH1 0x0 DUP1 REVERT JUMPDEST PUSH1 0x0 DUP1 REVERT JUMPDEST PUSH1 0x0 DUP1 REVERT JUMPDEST PUSH1 0x0 PUSH1 0x1F NOT PUSH1 0x1F DUP4 ADD AND SWAP1 POP SWAP2 SWAP1 POP JUMP JUMPDEST PUSH32 0x616C7265616479206F776E657221000000000000000000000000000000000000 PUSH1 0x0 DUP3 ADD MSTORE POP JUMP JUMPDEST PUSH32 0x6E6F206F776E6572732100000000000000000000000000000000000000000000 PUSH1 0x0 DUP3 ADD MSTORE POP JUMP JUMPDEST PUSH32 0x7A65726F20616464726573730000000000000000000000000000000000000000 PUSH1 0x0 DUP3 ADD MSTORE POP JUMP JUMPDEST PUSH2 0x686 DUP2 PUSH2 0x49A JUMP JUMPDEST DUP2 EQ PUSH2 0x691 JUMPI PUSH1 0x0 DUP1 REVERT JUMPDEST POP JUMP JUMPDEST PUSH2 0x199 DUP1 PUSH2 0x6A3 PUSH1 0x0 CODECOPY PUSH1 0x0 RETURN INVALID PUSH1 0x80 PUSH1 0x40 MSTORE CALLVALUE DUP1 ISZERO PUSH2 0x10 JUMPI PUSH1 0x0 DUP1 REVERT JUMPDEST POP PUSH1 0x4 CALLDATASIZE LT PUSH2 0x2B JUMPI PUSH1 0x0 CALLDATALOAD PUSH1 0xE0 SHR DUP1 PUSH4 0x25E7C27 EQ PUSH2 0x30 JUMPI JUMPDEST PUSH1 0x0 DUP1 REVERT JUMPDEST PUSH2 0x4A PUSH1 0x4 DUP1 CALLDATASIZE SUB DUP2 ADD SWAP1 PUSH2 0x45 SWAP2 SWAP1 PUSH2 0xB4 JUMP JUMPDEST PUSH2 0x60 JUMP JUMPDEST PUSH1 0x40 MLOAD PUSH2 0x57 SWAP2 SWAP1 PUSH2 0xF0 JUMP JUMPDEST PUSH1 0x40 MLOAD DUP1 SWAP2 SUB SWAP1 RETURN JUMPDEST PUSH1 0x0 DUP2 DUP2 SLOAD DUP2 LT PUSH2 0x70 JUMPI PUSH1 0x0 DUP1 REVERT JUMPDEST SWAP1 PUSH1 0x0 MSTORE PUSH1 0x20 PUSH1 0x0 KECCAK256 ADD PUSH1 0x0 SWAP2 POP SLOAD SWAP1 PUSH2 0x100 EXP SWAP1 DIV PUSH20 0xFFFFFFFFFFFFFFFFFFFFFFFFFFFFFFFFFFFFFFFF AND DUP2 JUMP JUMPDEST PUSH1 0x0 DUP2 CALLDATALOAD SWAP1 POP PUSH2 0xAE DUP2 PUSH2 0x14C JUMP JUMPDEST SWAP3 SWAP2 POP POP JUMP JUMPDEST PUSH1 0x0 PUSH1 0x20 DUP3 DUP5 SUB SLT ISZERO PUSH2 0xCA JUMPI PUSH2 0xC9 PUSH2 0x147 JUMP JUMPDEST JUMPDEST PUSH1 0x0 PUSH2 0xD8 DUP5 DUP3 DUP6 ADD PUSH2 0x9F JUMP JUMPDEST SWAP2 POP POP SWAP3 SWAP2 POP POP JUMP JUMPDEST PUSH2 0xEA DUP2 PUSH2 0x10B JUMP JUMPDEST DUP3 MSTORE POP POP JUMP JUMPDEST PUSH1 0x0 PUSH1 0x20 DUP3 ADD SWAP1 POP PUSH2 0x105 PUSH1 0x0 DUP4 ADD DUP5 PUSH2 0xE1 JUMP JUMPDEST SWAP3 SWAP2 POP POP JUMP JUMPDEST PUSH1 0x0 PUSH2 0x116 DUP3 PUSH2 0x11D JUMP JUMPDEST SWAP1 POP SWAP2 SWAP1 POP JUMP JUMPDEST PUSH1 0x0 PUSH20 0xFFFFFFFFFFFFFFFFFFFFFFFFFFFFFFFFFFFFFFFF DUP3 AND SWAP1 POP SWAP2 SWAP1 POP JUMP JUMPDEST PUSH1 0x0 DUP2 SWAP1 POP SWAP2 SWAP1 POP JUMP JUMPDEST PUSH1 0x0 DUP1 REVERT JUMPDEST PUSH2 0x155 DUP2 PUSH2 0x13D JUMP JUMPDEST DUP2 EQ PUSH2 0x160 JUMPI PUSH1 0x0 DUP1 REVERT JUMPDEST POP JUMP INVALID LOG2 PUSH5 0x6970667358 0x22 SLT KECCAK256 EXTCODEHASH NOT 0xAE ADDRESS 0x2F BYTE 0xB6 SWAP5 EXTCODECOPY 0xE6 XOR 0xEB 0x26 EXTCODECOPY 0xA6 SAR SAR DUP14 0xCD PUSH11 0xCEDFBDC17C08DDABBB02E3 RETURNDATASIZE PUSH5 0x736F6C6343 STOP ADDMOD SMOD STOP CALLER "
				},
				"gasEstimates": {
					"creation": {
						"codeDepositCost": "81800",
						"executionCost": "infinite",
						"totalCost": "infinite"
					},
					"external": {
						"owners(uint256)": "4934"
					}
				},
				"methodIdentifiers": {
					"owners(uint256)": "025e7c27"
				}
			},
			"storageLayout": {
				"storage": [
					{
						"astId": 4,
						"contract": "multisig_wallet/Multisig.sol:Ownable",
						"label": "owners",
						"offset": 0,
						"slot": "0",
						"type": "t_array(t_address)dyn_storage"
					},
					{
						"astId": 8,
						"contract": "multisig_wallet/Multisig.sol:Ownable",
						"label": "isOwner",
						"offset": 0,
						"slot": "1",
						"type": "t_mapping(t_address,t_bool)"
					}
				],
				"types": {
					"t_address": {
						"encoding": "inplace",
						"label": "address",
						"numberOfBytes": "20"
					},
					"t_array(t_address)dyn_storage": {
						"base": "t_address",
						"encoding": "dynamic_array",
						"label": "address[]",
						"numberOfBytes": "32"
					},
					"t_bool": {
						"encoding": "inplace",
						"label": "bool",
						"numberOfBytes": "1"
					},
					"t_mapping(t_address,t_bool)": {
						"encoding": "mapping",
						"key": "t_address",
						"label": "mapping(address => bool)",
						"numberOfBytes": "32",
						"value": "t_bool"
					}
				}
			},
			"userdoc": {
				"kind": "user",
				"methods": {},
				"version": 1
			}
		}
	}
}