{
	"multisig_wallet/Multisig.sol": {
		"Receiver": {
			"abi": [
				{
					"inputs": [],
					"name": "getBalance",
					"outputs": [
						{
							"internalType": "uint256",
							"name": "",
							"type": "uint256"
						}
					],
					"stateMutability": "view",
					"type": "function"
				},
				{
					"inputs": [
						{
							"internalType": "string",
							"name": "_msg",
							"type": "string"
						}
					],
					"name": "getMoney",
					"outputs": [],
					"stateMutability": "payable",
					"type": "function"
				},
				{
					"inputs": [],
					"name": "message",
					"outputs": [
						{
							"internalType": "string",
							"name": "",
							"type": "string"
						}
					],
					"stateMutability": "view",
					"type": "function"
				}
			],
			"devdoc": {
				"kind": "dev",
				"methods": {},
				"version": 1
			},
			"evm": {
				"assembly": "    /* \"multisig_wallet/Multisig.sol\":3522:3758  contract Receiver {... */\n  mstore(0x40, 0x80)\n  callvalue\n  dup1\n  iszero\n  tag_1\n  jumpi\n  0x00\n  dup1\n  revert\ntag_1:\n  pop\n  dataSize(sub_0)\n  dup1\n  dataOffset(sub_0)\n  0x00\n  codecopy\n  0x00\n  return\nstop\n\nsub_0: assembly {\n        /* \"multisig_wallet/Multisig.sol\":3522:3758  contract Receiver {... */\n      mstore(0x40, 0x80)\n      jumpi(tag_1, lt(calldatasize, 0x04))\n      shr(0xe0, calldataload(0x00))\n      dup1\n      0x12065fe0\n      eq\n      tag_2\n      jumpi\n      dup1\n      0xe21f37ce\n      eq\n      tag_3\n      jumpi\n      dup1\n      0xf219b23c\n      eq\n      tag_4\n      jumpi\n    tag_1:\n      0x00\n      dup1\n      revert\n        /* \"multisig_wallet/Multisig.sol\":3573:3665  function getBalance() public view returns(uint){... */\n    tag_2:\n      callvalue\n      dup1\n      iszero\n      tag_5\n      jumpi\n      0x00\n      dup1\n      revert\n    tag_5:\n      pop\n      tag_6\n      tag_7\n      jump\t// in\n    tag_6:\n      mload(0x40)\n      tag_8\n      swap2\n      swap1\n      tag_9\n      jump\t// in\n    tag_8:\n      mload(0x40)\n      dup1\n      swap2\n      sub\n      swap1\n      return\n        /* \"multisig_wallet/Multisig.sol\":3546:3567  string public message */\n    tag_3:\n      callvalue\n      dup1\n      iszero\n      tag_10\n      jumpi\n      0x00\n      dup1\n      revert\n    tag_10:\n      pop\n      tag_11\n      tag_12\n      jump\t// in\n    tag_11:\n      mload(0x40)\n      tag_13\n      swap2\n      swap1\n      tag_14\n      jump\t// in\n    tag_13:\n      mload(0x40)\n      dup1\n      swap2\n      sub\n      swap1\n      return\n        /* \"multisig_wallet/Multisig.sol\":3670:3756  function getMoney(string memory _msg) external payable {... */\n    tag_4:\n      tag_15\n      0x04\n      dup1\n      calldatasize\n      sub\n      dup2\n      add\n      swap1\n      tag_16\n      swap2\n      swap1\n      tag_17\n      jump\t// in\n    tag_16:\n      tag_18\n      jump\t// in\n    tag_15:\n      stop\n        /* \"multisig_wallet/Multisig.sol\":3573:3665  function getBalance() public view returns(uint){... */\n    tag_7:\n        /* \"multisig_wallet/Multisig.sol\":3615:3619  uint */\n      0x00\n        /* \"multisig_wallet/Multisig.sol\":3637:3658  address(this).balance */\n      selfbalance\n        /* \"multisig_wallet/Multisig.sol\":3630:3658  return address(this).balance */\n      swap1\n      pop\n        /* \"multisig_wallet/Multisig.sol\":3573:3665  function getBalance() public view returns(uint){... */\n      swap1\n      jump\t// out\n        /* \"multisig_wallet/Multisig.sol\":3546:3567  string public message */\n    tag_12:\n      0x00\n      dup1\n      sload\n      tag_20\n      swap1\n      tag_21\n      jump\t// in\n    tag_20:\n      dup1\n      0x1f\n      add\n      0x20\n      dup1\n      swap2\n      div\n      mul\n      0x20\n      add\n      mload(0x40)\n      swap1\n      dup2\n      add\n      0x40\n      mstore\n      dup1\n      swap3\n      swap2\n      swap1\n      dup2\n      dup2\n      mstore\n      0x20\n      add\n      dup3\n      dup1\n      sload\n      tag_22\n      swap1\n      tag_21\n      jump\t// in\n    tag_22:\n      dup1\n      iszero\n      tag_23\n      jumpi\n      dup1\n      0x1f\n      lt\n      tag_24\n      jumpi\n      0x0100\n      dup1\n      dup4\n      sload\n      div\n      mul\n      dup4\n      mstore\n      swap2\n      0x20\n      add\n      swap2\n      jump(tag_23)\n    tag_24:\n      dup3\n      add\n      swap2\n      swap1\n      0x00\n      mstore\n      keccak256(0x00, 0x20)\n      swap1\n    tag_25:\n      dup2\n      sload\n      dup2\n      mstore\n      swap1\n      0x01\n      add\n      swap1\n      0x20\n      add\n      dup1\n      dup4\n      gt\n      tag_25\n      jumpi\n      dup3\n      swap1\n      sub\n      0x1f\n      and\n      dup3\n      add\n      swap2\n    tag_23:\n      pop\n      pop\n      pop\n      pop\n      pop\n      dup2\n      jump\t// out\n        /* \"multisig_wallet/Multisig.sol\":3670:3756  function getMoney(string memory _msg) external payable {... */\n    tag_18:\n        /* \"multisig_wallet/Multisig.sol\":3745:3749  _msg */\n      dup1\n        /* \"multisig_wallet/Multisig.sol\":3735:3742  message */\n      0x00\n        /* \"multisig_wallet/Multisig.sol\":3735:3749  message = _msg */\n      swap1\n      dup1\n      mload\n      swap1\n      0x20\n      add\n      swap1\n      tag_27\n      swap3\n      swap2\n      swap1\n      tag_28\n      jump\t// in\n    tag_27:\n      pop\n        /* \"multisig_wallet/Multisig.sol\":3670:3756  function getMoney(string memory _msg) external payable {... */\n      pop\n      jump\t// out\n    tag_28:\n      dup3\n      dup1\n      sload\n      tag_29\n      swap1\n      tag_21\n      jump\t// in\n    tag_29:\n      swap1\n      0x00\n      mstore\n      keccak256(0x00, 0x20)\n      swap1\n      0x1f\n      add\n      0x20\n      swap1\n      div\n      dup2\n      add\n      swap3\n      dup3\n      tag_31\n      jumpi\n      0x00\n      dup6\n      sstore\n      jump(tag_30)\n    tag_31:\n      dup3\n      0x1f\n      lt\n      tag_32\n      jumpi\n      dup1\n      mload\n      not(0xff)\n      and\n      dup4\n      dup1\n      add\n      or\n      dup6\n      sstore\n      jump(tag_30)\n    tag_32:\n      dup3\n      dup1\n      add\n      0x01\n      add\n      dup6\n      sstore\n      dup3\n      iszero\n      tag_30\n      jumpi\n      swap2\n      dup3\n      add\n    tag_33:\n      dup3\n      dup2\n      gt\n      iszero\n      tag_34\n      jumpi\n      dup3\n      mload\n      dup3\n      sstore\n      swap2\n      0x20\n      add\n      swap2\n      swap1\n      0x01\n      add\n      swap1\n      jump(tag_33)\n    tag_34:\n    tag_30:\n      pop\n      swap1\n      pop\n      tag_35\n      swap2\n      swap1\n      tag_36\n      jump\t// in\n    tag_35:\n      pop\n      swap1\n      jump\t// out\n    tag_36:\n    tag_37:\n      dup1\n      dup3\n      gt\n      iszero\n      tag_38\n      jumpi\n      0x00\n      dup2\n      0x00\n      swap1\n      sstore\n      pop\n      0x01\n      add\n      jump(tag_37)\n    tag_38:\n      pop\n      swap1\n      jump\t// out\n        /* \"#utility.yul\":7:419   */\n    tag_40:\n        /* \"#utility.yul\":85:90   */\n      0x00\n        /* \"#utility.yul\":110:176   */\n      tag_42\n        /* \"#utility.yul\":126:175   */\n      tag_43\n        /* \"#utility.yul\":168:174   */\n      dup5\n        /* \"#utility.yul\":126:175   */\n      tag_44\n      jump\t// in\n    tag_43:\n        /* \"#utility.yul\":110:176   */\n      tag_45\n      jump\t// in\n    tag_42:\n        /* \"#utility.yul\":101:176   */\n      swap1\n      pop\n        /* \"#utility.yul\":199:205   */\n      dup3\n        /* \"#utility.yul\":192:197   */\n      dup2\n        /* \"#utility.yul\":185:206   */\n      mstore\n        /* \"#utility.yul\":237:241   */\n      0x20\n        /* \"#utility.yul\":230:235   */\n      dup2\n        /* \"#utility.yul\":226:242   */\n      add\n        /* \"#utility.yul\":275:278   */\n      dup5\n        /* \"#utility.yul\":266:272   */\n      dup5\n        /* \"#utility.yul\":261:264   */\n      dup5\n        /* \"#utility.yul\":257:273   */\n      add\n        /* \"#utility.yul\":254:279   */\n      gt\n        /* \"#utility.yul\":251:363   */\n      iszero\n      tag_46\n      jumpi\n        /* \"#utility.yul\":282:361   */\n      tag_47\n      tag_48\n      jump\t// in\n    tag_47:\n        /* \"#utility.yul\":251:363   */\n    tag_46:\n        /* \"#utility.yul\":372:413   */\n      tag_49\n        /* \"#utility.yul\":406:412   */\n      dup5\n        /* \"#utility.yul\":401:404   */\n      dup3\n        /* \"#utility.yul\":396:399   */\n      dup6\n        /* \"#utility.yul\":372:413   */\n      tag_50\n      jump\t// in\n    tag_49:\n        /* \"#utility.yul\":91:419   */\n      pop\n        /* \"#utility.yul\":7:419   */\n      swap4\n      swap3\n      pop\n      pop\n      pop\n      jump\t// out\n        /* \"#utility.yul\":439:779   */\n    tag_51:\n        /* \"#utility.yul\":495:500   */\n      0x00\n        /* \"#utility.yul\":544:547   */\n      dup3\n        /* \"#utility.yul\":537:541   */\n      0x1f\n        /* \"#utility.yul\":529:535   */\n      dup4\n        /* \"#utility.yul\":525:542   */\n      add\n        /* \"#utility.yul\":521:548   */\n      slt\n        /* \"#utility.yul\":511:633   */\n      tag_53\n      jumpi\n        /* \"#utility.yul\":552:631   */\n      tag_54\n      tag_55\n      jump\t// in\n    tag_54:\n        /* \"#utility.yul\":511:633   */\n    tag_53:\n        /* \"#utility.yul\":669:675   */\n      dup2\n        /* \"#utility.yul\":656:676   */\n      calldataload\n        /* \"#utility.yul\":694:773   */\n      tag_56\n        /* \"#utility.yul\":769:772   */\n      dup5\n        /* \"#utility.yul\":761:767   */\n      dup3\n        /* \"#utility.yul\":754:758   */\n      0x20\n        /* \"#utility.yul\":746:752   */\n      dup7\n        /* \"#utility.yul\":742:759   */\n      add\n        /* \"#utility.yul\":694:773   */\n      tag_40\n      jump\t// in\n    tag_56:\n        /* \"#utility.yul\":685:773   */\n      swap2\n      pop\n        /* \"#utility.yul\":501:779   */\n      pop\n        /* \"#utility.yul\":439:779   */\n      swap3\n      swap2\n      pop\n      pop\n      jump\t// out\n        /* \"#utility.yul\":785:1294   */\n    tag_17:\n        /* \"#utility.yul\":854:860   */\n      0x00\n        /* \"#utility.yul\":903:905   */\n      0x20\n        /* \"#utility.yul\":891:900   */\n      dup3\n        /* \"#utility.yul\":882:889   */\n      dup5\n        /* \"#utility.yul\":878:901   */\n      sub\n        /* \"#utility.yul\":874:906   */\n      slt\n        /* \"#utility.yul\":871:990   */\n      iszero\n      tag_58\n      jumpi\n        /* \"#utility.yul\":909:988   */\n      tag_59\n      tag_60\n      jump\t// in\n    tag_59:\n        /* \"#utility.yul\":871:990   */\n    tag_58:\n        /* \"#utility.yul\":1057:1058   */\n      0x00\n        /* \"#utility.yul\":1046:1055   */\n      dup3\n        /* \"#utility.yul\":1042:1059   */\n      add\n        /* \"#utility.yul\":1029:1060   */\n      calldataload\n        /* \"#utility.yul\":1087:1105   */\n      0xffffffffffffffff\n        /* \"#utility.yul\":1079:1085   */\n      dup2\n        /* \"#utility.yul\":1076:1106   */\n      gt\n        /* \"#utility.yul\":1073:1190   */\n      iszero\n      tag_61\n      jumpi\n        /* \"#utility.yul\":1109:1188   */\n      tag_62\n      tag_63\n      jump\t// in\n    tag_62:\n        /* \"#utility.yul\":1073:1190   */\n    tag_61:\n        /* \"#utility.yul\":1214:1277   */\n      tag_64\n        /* \"#utility.yul\":1269:1276   */\n      dup5\n        /* \"#utility.yul\":1260:1266   */\n      dup3\n        /* \"#utility.yul\":1249:1258   */\n      dup6\n        /* \"#utility.yul\":1245:1267   */\n      add\n        /* \"#utility.yul\":1214:1277   */\n      tag_51\n      jump\t// in\n    tag_64:\n        /* \"#utility.yul\":1204:1277   */\n      swap2\n      pop\n        /* \"#utility.yul\":1000:1287   */\n      pop\n        /* \"#utility.yul\":785:1294   */\n      swap3\n      swap2\n      pop\n      pop\n      jump\t// out\n        /* \"#utility.yul\":1300:1664   */\n    tag_65:\n        /* \"#utility.yul\":1388:1391   */\n      0x00\n        /* \"#utility.yul\":1416:1455   */\n      tag_67\n        /* \"#utility.yul\":1449:1454   */\n      dup3\n        /* \"#utility.yul\":1416:1455   */\n      tag_68\n      jump\t// in\n    tag_67:\n        /* \"#utility.yul\":1471:1542   */\n      tag_69\n        /* \"#utility.yul\":1535:1541   */\n      dup2\n        /* \"#utility.yul\":1530:1533   */\n      dup6\n        /* \"#utility.yul\":1471:1542   */\n      tag_70\n      jump\t// in\n    tag_69:\n        /* \"#utility.yul\":1464:1542   */\n      swap4\n      pop\n        /* \"#utility.yul\":1551:1603   */\n      tag_71\n        /* \"#utility.yul\":1596:1602   */\n      dup2\n        /* \"#utility.yul\":1591:1594   */\n      dup6\n        /* \"#utility.yul\":1584:1588   */\n      0x20\n        /* \"#utility.yul\":1577:1582   */\n      dup7\n        /* \"#utility.yul\":1573:1589   */\n      add\n        /* \"#utility.yul\":1551:1603   */\n      tag_72\n      jump\t// in\n    tag_71:\n        /* \"#utility.yul\":1628:1657   */\n      tag_73\n        /* \"#utility.yul\":1650:1656   */\n      dup2\n        /* \"#utility.yul\":1628:1657   */\n      tag_74\n      jump\t// in\n    tag_73:\n        /* \"#utility.yul\":1623:1626   */\n      dup5\n        /* \"#utility.yul\":1619:1658   */\n      add\n        /* \"#utility.yul\":1612:1658   */\n      swap2\n      pop\n        /* \"#utility.yul\":1392:1664   */\n      pop\n        /* \"#utility.yul\":1300:1664   */\n      swap3\n      swap2\n      pop\n      pop\n      jump\t// out\n        /* \"#utility.yul\":1670:1788   */\n    tag_75:\n        /* \"#utility.yul\":1757:1781   */\n      tag_77\n        /* \"#utility.yul\":1775:1780   */\n      dup2\n        /* \"#utility.yul\":1757:1781   */\n      tag_78\n      jump\t// in\n    tag_77:\n        /* \"#utility.yul\":1752:1755   */\n      dup3\n        /* \"#utility.yul\":1745:1782   */\n      mstore\n        /* \"#utility.yul\":1670:1788   */\n      pop\n      pop\n      jump\t// out\n        /* \"#utility.yul\":1794:2107   */\n    tag_14:\n        /* \"#utility.yul\":1907:1911   */\n      0x00\n        /* \"#utility.yul\":1945:1947   */\n      0x20\n        /* \"#utility.yul\":1934:1943   */\n      dup3\n        /* \"#utility.yul\":1930:1948   */\n      add\n        /* \"#utility.yul\":1922:1948   */\n      swap1\n      pop\n        /* \"#utility.yul\":1994:2003   */\n      dup2\n        /* \"#utility.yul\":1988:1992   */\n      dup2\n        /* \"#utility.yul\":1984:2004   */\n      sub\n        /* \"#utility.yul\":1980:1981   */\n      0x00\n        /* \"#utility.yul\":1969:1978   */\n      dup4\n        /* \"#utility.yul\":1965:1982   */\n      add\n        /* \"#utility.yul\":1958:2005   */\n      mstore\n        /* \"#utility.yul\":2022:2100   */\n      tag_80\n        /* \"#utility.yul\":2095:2099   */\n      dup2\n        /* \"#utility.yul\":2086:2092   */\n      dup5\n        /* \"#utility.yul\":2022:2100   */\n      tag_65\n      jump\t// in\n    tag_80:\n        /* \"#utility.yul\":2014:2100   */\n      swap1\n      pop\n        /* \"#utility.yul\":1794:2107   */\n      swap3\n      swap2\n      pop\n      pop\n      jump\t// out\n        /* \"#utility.yul\":2113:2335   */\n    tag_9:\n        /* \"#utility.yul\":2206:2210   */\n      0x00\n        /* \"#utility.yul\":2244:2246   */\n      0x20\n        /* \"#utility.yul\":2233:2242   */\n      dup3\n        /* \"#utility.yul\":2229:2247   */\n      add\n        /* \"#utility.yul\":2221:2247   */\n      swap1\n      pop\n        /* \"#utility.yul\":2257:2328   */\n      tag_82\n        /* \"#utility.yul\":2325:2326   */\n      0x00\n        /* \"#utility.yul\":2314:2323   */\n      dup4\n        /* \"#utility.yul\":2310:2327   */\n      add\n        /* \"#utility.yul\":2301:2307   */\n      dup5\n        /* \"#utility.yul\":2257:2328   */\n      tag_75\n      jump\t// in\n    tag_82:\n        /* \"#utility.yul\":2113:2335   */\n      swap3\n      swap2\n      pop\n      pop\n      jump\t// out\n        /* \"#utility.yul\":2341:2470   */\n    tag_45:\n        /* \"#utility.yul\":2375:2381   */\n      0x00\n        /* \"#utility.yul\":2402:2422   */\n      tag_84\n      tag_85\n      jump\t// in\n    tag_84:\n        /* \"#utility.yul\":2392:2422   */\n      swap1\n      pop\n        /* \"#utility.yul\":2431:2464   */\n      tag_86\n        /* \"#utility.yul\":2459:2463   */\n      dup3\n        /* \"#utility.yul\":2451:2457   */\n      dup3\n        /* \"#utility.yul\":2431:2464   */\n      tag_87\n      jump\t// in\n    tag_86:\n        /* \"#utility.yul\":2341:2470   */\n      swap2\n      swap1\n      pop\n      jump\t// out\n        /* \"#utility.yul\":2476:2551   */\n    tag_85:\n        /* \"#utility.yul\":2509:2515   */\n      0x00\n        /* \"#utility.yul\":2542:2544   */\n      0x40\n        /* \"#utility.yul\":2536:2545   */\n      mload\n        /* \"#utility.yul\":2526:2545   */\n      swap1\n      pop\n        /* \"#utility.yul\":2476:2551   */\n      swap1\n      jump\t// out\n        /* \"#utility.yul\":2557:2865   */\n    tag_44:\n        /* \"#utility.yul\":2619:2623   */\n      0x00\n        /* \"#utility.yul\":2709:2727   */\n      0xffffffffffffffff\n        /* \"#utility.yul\":2701:2707   */\n      dup3\n        /* \"#utility.yul\":2698:2728   */\n      gt\n        /* \"#utility.yul\":2695:2751   */\n      iszero\n      tag_90\n      jumpi\n        /* \"#utility.yul\":2731:2749   */\n      tag_91\n      tag_92\n      jump\t// in\n    tag_91:\n        /* \"#utility.yul\":2695:2751   */\n    tag_90:\n        /* \"#utility.yul\":2769:2798   */\n      tag_93\n        /* \"#utility.yul\":2791:2797   */\n      dup3\n        /* \"#utility.yul\":2769:2798   */\n      tag_74\n      jump\t// in\n    tag_93:\n        /* \"#utility.yul\":2761:2798   */\n      swap1\n      pop\n        /* \"#utility.yul\":2853:2857   */\n      0x20\n        /* \"#utility.yul\":2847:2851   */\n      dup2\n        /* \"#utility.yul\":2843:2858   */\n      add\n        /* \"#utility.yul\":2835:2858   */\n      swap1\n      pop\n        /* \"#utility.yul\":2557:2865   */\n      swap2\n      swap1\n      pop\n      jump\t// out\n        /* \"#utility.yul\":2871:2970   */\n    tag_68:\n        /* \"#utility.yul\":2923:2929   */\n      0x00\n        /* \"#utility.yul\":2957:2962   */\n      dup2\n        /* \"#utility.yul\":2951:2963   */\n      mload\n        /* \"#utility.yul\":2941:2963   */\n      swap1\n      pop\n        /* \"#utility.yul\":2871:2970   */\n      swap2\n      swap1\n      pop\n      jump\t// out\n        /* \"#utility.yul\":2976:3145   */\n    tag_70:\n        /* \"#utility.yul\":3060:3071   */\n      0x00\n        /* \"#utility.yul\":3094:3100   */\n      dup3\n        /* \"#utility.yul\":3089:3092   */\n      dup3\n        /* \"#utility.yul\":3082:3101   */\n      mstore\n        /* \"#utility.yul\":3134:3138   */\n      0x20\n        /* \"#utility.yul\":3129:3132   */\n      dup3\n        /* \"#utility.yul\":3125:3139   */\n      add\n        /* \"#utility.yul\":3110:3139   */\n      swap1\n      pop\n        /* \"#utility.yul\":2976:3145   */\n      swap3\n      swap2\n      pop\n      pop\n      jump\t// out\n        /* \"#utility.yul\":3151:3228   */\n    tag_78:\n        /* \"#utility.yul\":3188:3195   */\n      0x00\n        /* \"#utility.yul\":3217:3222   */\n      dup2\n        /* \"#utility.yul\":3206:3222   */\n      swap1\n      pop\n        /* \"#utility.yul\":3151:3228   */\n      swap2\n      swap1\n      pop\n      jump\t// out\n        /* \"#utility.yul\":3234:3388   */\n    tag_50:\n        /* \"#utility.yul\":3318:3324   */\n      dup3\n        /* \"#utility.yul\":3313:3316   */\n      dup2\n        /* \"#utility.yul\":3308:3311   */\n      dup4\n        /* \"#utility.yul\":3295:3325   */\n      calldatacopy\n        /* \"#utility.yul\":3380:3381   */\n      0x00\n        /* \"#utility.yul\":3371:3377   */\n      dup4\n        /* \"#utility.yul\":3366:3369   */\n      dup4\n        /* \"#utility.yul\":3362:3378   */\n      add\n        /* \"#utility.yul\":3355:3382   */\n      mstore\n        /* \"#utility.yul\":3234:3388   */\n      pop\n      pop\n      pop\n      jump\t// out\n        /* \"#utility.yul\":3394:3701   */\n    tag_72:\n        /* \"#utility.yul\":3462:3463   */\n      0x00\n        /* \"#utility.yul\":3472:3585   */\n    tag_99:\n        /* \"#utility.yul\":3486:3492   */\n      dup4\n        /* \"#utility.yul\":3483:3484   */\n      dup2\n        /* \"#utility.yul\":3480:3493   */\n      lt\n        /* \"#utility.yul\":3472:3585   */\n      iszero\n      tag_101\n      jumpi\n        /* \"#utility.yul\":3571:3572   */\n      dup1\n        /* \"#utility.yul\":3566:3569   */\n      dup3\n        /* \"#utility.yul\":3562:3573   */\n      add\n        /* \"#utility.yul\":3556:3574   */\n      mload\n        /* \"#utility.yul\":3552:3553   */\n      dup2\n        /* \"#utility.yul\":3547:3550   */\n      dup5\n        /* \"#utility.yul\":3543:3554   */\n      add\n        /* \"#utility.yul\":3536:3575   */\n      mstore\n        /* \"#utility.yul\":3508:3510   */\n      0x20\n        /* \"#utility.yul\":3505:3506   */\n      dup2\n        /* \"#utility.yul\":3501:3511   */\n      add\n        /* \"#utility.yul\":3496:3511   */\n      swap1\n      pop\n        /* \"#utility.yul\":3472:3585   */\n      jump(tag_99)\n    tag_101:\n        /* \"#utility.yul\":3603:3609   */\n      dup4\n        /* \"#utility.yul\":3600:3601   */\n      dup2\n        /* \"#utility.yul\":3597:3610   */\n      gt\n        /* \"#utility.yul\":3594:3695   */\n      iszero\n      tag_102\n      jumpi\n        /* \"#utility.yul\":3683:3684   */\n      0x00\n        /* \"#utility.yul\":3674:3680   */\n      dup5\n        /* \"#utility.yul\":3669:3672   */\n      dup5\n        /* \"#utility.yul\":3665:3681   */\n      add\n        /* \"#utility.yul\":3658:3685   */\n      mstore\n        /* \"#utility.yul\":3594:3695   */\n    tag_102:\n        /* \"#utility.yul\":3443:3701   */\n      pop\n        /* \"#utility.yul\":3394:3701   */\n      pop\n      pop\n      pop\n      jump\t// out\n        /* \"#utility.yul\":3707:4027   */\n    tag_21:\n        /* \"#utility.yul\":3751:3757   */\n      0x00\n        /* \"#utility.yul\":3788:3789   */\n      0x02\n        /* \"#utility.yul\":3782:3786   */\n      dup3\n        /* \"#utility.yul\":3778:3790   */\n      div\n        /* \"#utility.yul\":3768:3790   */\n      swap1\n      pop\n        /* \"#utility.yul\":3835:3836   */\n      0x01\n        /* \"#utility.yul\":3829:3833   */\n      dup3\n        /* \"#utility.yul\":3825:3837   */\n      and\n        /* \"#utility.yul\":3856:3874   */\n      dup1\n        /* \"#utility.yul\":3846:3927   */\n      tag_104\n      jumpi\n        /* \"#utility.yul\":3912:3916   */\n      0x7f\n        /* \"#utility.yul\":3904:3910   */\n      dup3\n        /* \"#utility.yul\":3900:3917   */\n      and\n        /* \"#utility.yul\":3890:3917   */\n      swap2\n      pop\n        /* \"#utility.yul\":3846:3927   */\n    tag_104:\n        /* \"#utility.yul\":3974:3976   */\n      0x20\n        /* \"#utility.yul\":3966:3972   */\n      dup3\n        /* \"#utility.yul\":3963:3977   */\n      lt\n        /* \"#utility.yul\":3943:3961   */\n      dup2\n        /* \"#utility.yul\":3940:3978   */\n      eq\n        /* \"#utility.yul\":3937:4021   */\n      iszero\n      tag_105\n      jumpi\n        /* \"#utility.yul\":3993:4011   */\n      tag_106\n      tag_107\n      jump\t// in\n    tag_106:\n        /* \"#utility.yul\":3937:4021   */\n    tag_105:\n        /* \"#utility.yul\":3758:4027   */\n      pop\n        /* \"#utility.yul\":3707:4027   */\n      swap2\n      swap1\n      pop\n      jump\t// out\n        /* \"#utility.yul\":4033:4314   */\n    tag_87:\n        /* \"#utility.yul\":4116:4143   */\n      tag_109\n        /* \"#utility.yul\":4138:4142   */\n      dup3\n        /* \"#utility.yul\":4116:4143   */\n      tag_74\n      jump\t// in\n    tag_109:\n        /* \"#utility.yul\":4108:4114   */\n      dup2\n        /* \"#utility.yul\":4104:4144   */\n      add\n        /* \"#utility.yul\":4246:4252   */\n      dup2\n        /* \"#utility.yul\":4234:4244   */\n      dup2\n        /* \"#utility.yul\":4231:4253   */\n      lt\n        /* \"#utility.yul\":4210:4228   */\n      0xffffffffffffffff\n        /* \"#utility.yul\":4198:4208   */\n      dup3\n        /* \"#utility.yul\":4195:4229   */\n      gt\n        /* \"#utility.yul\":4192:4254   */\n      or\n        /* \"#utility.yul\":4189:4277   */\n      iszero\n      tag_110\n      jumpi\n        /* \"#utility.yul\":4257:4275   */\n      tag_111\n      tag_92\n      jump\t// in\n    tag_111:\n        /* \"#utility.yul\":4189:4277   */\n    tag_110:\n        /* \"#utility.yul\":4297:4307   */\n      dup1\n        /* \"#utility.yul\":4293:4295   */\n      0x40\n        /* \"#utility.yul\":4286:4308   */\n      mstore\n        /* \"#utility.yul\":4076:4314   */\n      pop\n        /* \"#utility.yul\":4033:4314   */\n      pop\n      pop\n      jump\t// out\n        /* \"#utility.yul\":4320:4500   */\n    tag_107:\n        /* \"#utility.yul\":4368:4445   */\n      0x4e487b7100000000000000000000000000000000000000000000000000000000\n        /* \"#utility.yul\":4365:4366   */\n      0x00\n        /* \"#utility.yul\":4358:4446   */\n      mstore\n        /* \"#utility.yul\":4465:4469   */\n      0x22\n        /* \"#utility.yul\":4462:4463   */\n      0x04\n        /* \"#utility.yul\":4455:4470   */\n      mstore\n        /* \"#utility.yul\":4489:4493   */\n      0x24\n        /* \"#utility.yul\":4486:4487   */\n      0x00\n        /* \"#utility.yul\":4479:4494   */\n      revert\n        /* \"#utility.yul\":4506:4686   */\n    tag_92:\n        /* \"#utility.yul\":4554:4631   */\n      0x4e487b7100000000000000000000000000000000000000000000000000000000\n        /* \"#utility.yul\":4551:4552   */\n      0x00\n        /* \"#utility.yul\":4544:4632   */\n      mstore\n        /* \"#utility.yul\":4651:4655   */\n      0x41\n        /* \"#utility.yul\":4648:4649   */\n      0x04\n        /* \"#utility.yul\":4641:4656   */\n      mstore\n        /* \"#utility.yul\":4675:4679   */\n      0x24\n        /* \"#utility.yul\":4672:4673   */\n      0x00\n        /* \"#utility.yul\":4665:4680   */\n      revert\n        /* \"#utility.yul\":4692:4809   */\n    tag_55:\n        /* \"#utility.yul\":4801:4802   */\n      0x00\n        /* \"#utility.yul\":4798:4799   */\n      dup1\n        /* \"#utility.yul\":4791:4803   */\n      revert\n        /* \"#utility.yul\":4815:4932   */\n    tag_48:\n        /* \"#utility.yul\":4924:4925   */\n      0x00\n        /* \"#utility.yul\":4921:4922   */\n      dup1\n        /* \"#utility.yul\":4914:4926   */\n      revert\n        /* \"#utility.yul\":4938:5055   */\n    tag_63:\n        /* \"#utility.yul\":5047:5048   */\n      0x00\n        /* \"#utility.yul\":5044:5045   */\n      dup1\n        /* \"#utility.yul\":5037:5049   */\n      revert\n        /* \"#utility.yul\":5061:5178   */\n    tag_60:\n        /* \"#utility.yul\":5170:5171   */\n      0x00\n        /* \"#utility.yul\":5167:5168   */\n      dup1\n        /* \"#utility.yul\":5160:5172   */\n      revert\n        /* \"#utility.yul\":5184:5286   */\n    tag_74:\n        /* \"#utility.yul\":5225:5231   */\n      0x00\n        /* \"#utility.yul\":5276:5278   */\n      0x1f\n        /* \"#utility.yul\":5272:5279   */\n      not\n        /* \"#utility.yul\":5267:5269   */\n      0x1f\n        /* \"#utility.yul\":5260:5265   */\n      dup4\n        /* \"#utility.yul\":5256:5270   */\n      add\n        /* \"#utility.yul\":5252:5280   */\n      and\n        /* \"#utility.yul\":5242:5280   */\n      swap1\n      pop\n        /* \"#utility.yul\":5184:5286   */\n      swap2\n      swap1\n      pop\n      jump\t// out\n\n    auxdata: 0xa26469706673582212207d5eb64e13304759489390938f14dbcc656aea2afd37325a8b7af6d309a25fdb64736f6c63430008070033\n}\n",
				"bytecode": {
					"linkReferences": {},
					"object": "608060405234801561001057600080fd5b50610516806100206000396000f3fe6080604052600436106100345760003560e01c806312065fe014610039578063e21f37ce14610064578063f219b23c1461008f575b600080fd5b34801561004557600080fd5b5061004e6100ab565b60405161005b9190610321565b60405180910390f35b34801561007057600080fd5b506100796100b3565b60405161008691906102ff565b60405180910390f35b6100a960048036038101906100a4919061026e565b610141565b005b600047905090565b600080546100c0906103fa565b80601f01602080910402602001604051908101604052809291908181526020018280546100ec906103fa565b80156101395780601f1061010e57610100808354040283529160200191610139565b820191906000526020600020905b81548152906001019060200180831161011c57829003601f168201915b505050505081565b806000908051906020019061015792919061015b565b5050565b828054610167906103fa565b90600052602060002090601f01602090048101928261018957600085556101d0565b82601f106101a257805160ff19168380011785556101d0565b828001600101855582156101d0579182015b828111156101cf5782518255916020019190600101906101b4565b5b5090506101dd91906101e1565b5090565b5b808211156101fa5760008160009055506001016101e2565b5090565b600061021161020c84610361565b61033c565b90508281526020810184848401111561022d5761022c6104c0565b5b6102388482856103b8565b509392505050565b600082601f830112610255576102546104bb565b5b81356102658482602086016101fe565b91505092915050565b600060208284031215610284576102836104ca565b5b600082013567ffffffffffffffff8111156102a2576102a16104c5565b5b6102ae84828501610240565b91505092915050565b60006102c282610392565b6102cc818561039d565b93506102dc8185602086016103c7565b6102e5816104cf565b840191505092915050565b6102f9816103ae565b82525050565b6000602082019050818103600083015261031981846102b7565b905092915050565b600060208201905061033660008301846102f0565b92915050565b6000610346610357565b9050610352828261042c565b919050565b6000604051905090565b600067ffffffffffffffff82111561037c5761037b61048c565b5b610385826104cf565b9050602081019050919050565b600081519050919050565b600082825260208201905092915050565b6000819050919050565b82818337600083830152505050565b60005b838110156103e55780820151818401526020810190506103ca565b838111156103f4576000848401525b50505050565b6000600282049050600182168061041257607f821691505b602082108114156104265761042561045d565b5b50919050565b610435826104cf565b810181811067ffffffffffffffff821117156104545761045361048c565b5b80604052505050565b7f4e487b7100000000000000000000000000000000000000000000000000000000600052602260045260246000fd5b7f4e487b7100000000000000000000000000000000000000000000000000000000600052604160045260246000fd5b600080fd5b600080fd5b600080fd5b600080fd5b6000601f19601f830116905091905056fea26469706673582212207d5eb64e13304759489390938f14dbcc656aea2afd37325a8b7af6d309a25fdb64736f6c63430008070033",
					"opcodes": "PUSH1 0x80 PUSH1 0x40 MSTORE CALLVALUE DUP1 ISZERO PUSH2 0x10 JUMPI PUSH1 0x0 DUP1 REVERT JUMPDEST POP PUSH2 0x516 DUP1 PUSH2 0x20 PUSH1 0x0 CODECOPY PUSH1 0x0 RETURN INVALID PUSH1 0x80 PUSH1 0x40 MSTORE PUSH1 0x4 CALLDATASIZE LT PUSH2 0x34 JUMPI PUSH1 0x0 CALLDATALOAD PUSH1 0xE0 SHR DUP1 PUSH4 0x12065FE0 EQ PUSH2 0x39 JUMPI DUP1 PUSH4 0xE21F37CE EQ PUSH2 0x64 JUMPI DUP1 PUSH4 0xF219B23C EQ PUSH2 0x8F JUMPI JUMPDEST PUSH1 0x0 DUP1 REVERT JUMPDEST CALLVALUE DUP1 ISZERO PUSH2 0x45 JUMPI PUSH1 0x0 DUP1 REVERT JUMPDEST POP PUSH2 0x4E PUSH2 0xAB JUMP JUMPDEST PUSH1 0x40 MLOAD PUSH2 0x5B SWAP2 SWAP1 PUSH2 0x321 JUMP JUMPDEST PUSH1 0x40 MLOAD DUP1 SWAP2 SUB SWAP1 RETURN JUMPDEST CALLVALUE DUP1 ISZERO PUSH2 0x70 JUMPI PUSH1 0x0 DUP1 REVERT JUMPDEST POP PUSH2 0x79 PUSH2 0xB3 JUMP JUMPDEST PUSH1 0x40 MLOAD PUSH2 0x86 SWAP2 SWAP1 PUSH2 0x2FF JUMP JUMPDEST PUSH1 0x40 MLOAD DUP1 SWAP2 SUB SWAP1 RETURN JUMPDEST PUSH2 0xA9 PUSH1 0x4 DUP1 CALLDATASIZE SUB DUP2 ADD SWAP1 PUSH2 0xA4 SWAP2 SWAP1 PUSH2 0x26E JUMP JUMPDEST PUSH2 0x141 JUMP JUMPDEST STOP JUMPDEST PUSH1 0x0 SELFBALANCE SWAP1 POP SWAP1 JUMP JUMPDEST PUSH1 0x0 DUP1 SLOAD PUSH2 0xC0 SWAP1 PUSH2 0x3FA JUMP JUMPDEST DUP1 PUSH1 0x1F ADD PUSH1 0x20 DUP1 SWAP2 DIV MUL PUSH1 0x20 ADD PUSH1 0x40 MLOAD SWAP1 DUP2 ADD PUSH1 0x40 MSTORE DUP1 SWAP3 SWAP2 SWAP1 DUP2 DUP2 MSTORE PUSH1 0x20 ADD DUP3 DUP1 SLOAD PUSH2 0xEC SWAP1 PUSH2 0x3FA JUMP JUMPDEST DUP1 ISZERO PUSH2 0x139 JUMPI DUP1 PUSH1 0x1F LT PUSH2 0x10E JUMPI PUSH2 0x100 DUP1 DUP4 SLOAD DIV MUL DUP4 MSTORE SWAP2 PUSH1 0x20 ADD SWAP2 PUSH2 0x139 JUMP JUMPDEST DUP3 ADD SWAP2 SWAP1 PUSH1 0x0 MSTORE PUSH1 0x20 PUSH1 0x0 KECCAK256 SWAP1 JUMPDEST DUP2 SLOAD DUP2 MSTORE SWAP1 PUSH1 0x1 ADD SWAP1 PUSH1 0x20 ADD DUP1 DUP4 GT PUSH2 0x11C JUMPI DUP3 SWAP1 SUB PUSH1 0x1F AND DUP3 ADD SWAP2 JUMPDEST POP POP POP POP POP DUP2 JUMP JUMPDEST DUP1 PUSH1 0x0 SWAP1 DUP1 MLOAD SWAP1 PUSH1 0x20 ADD SWAP1 PUSH2 0x157 SWAP3 SWAP2 SWAP1 PUSH2 0x15B JUMP JUMPDEST POP POP JUMP JUMPDEST DUP3 DUP1 SLOAD PUSH2 0x167 SWAP1 PUSH2 0x3FA JUMP JUMPDEST SWAP1 PUSH1 0x0 MSTORE PUSH1 0x20 PUSH1 0x0 KECCAK256 SWAP1 PUSH1 0x1F ADD PUSH1 0x20 SWAP1 DIV DUP2 ADD SWAP3 DUP3 PUSH2 0x189 JUMPI PUSH1 0x0 DUP6 SSTORE PUSH2 0x1D0 JUMP JUMPDEST DUP3 PUSH1 0x1F LT PUSH2 0x1A2 JUMPI DUP1 MLOAD PUSH1 0xFF NOT AND DUP4 DUP1 ADD OR DUP6 SSTORE PUSH2 0x1D0 JUMP JUMPDEST DUP3 DUP1 ADD PUSH1 0x1 ADD DUP6 SSTORE DUP3 ISZERO PUSH2 0x1D0 JUMPI SWAP2 DUP3 ADD JUMPDEST DUP3 DUP2 GT ISZERO PUSH2 0x1CF JUMPI DUP3 MLOAD DUP3 SSTORE SWAP2 PUSH1 0x20 ADD SWAP2 SWAP1 PUSH1 0x1 ADD SWAP1 PUSH2 0x1B4 JUMP JUMPDEST JUMPDEST POP SWAP1 POP PUSH2 0x1DD SWAP2 SWAP1 PUSH2 0x1E1 JUMP JUMPDEST POP SWAP1 JUMP JUMPDEST JUMPDEST DUP1 DUP3 GT ISZERO PUSH2 0x1FA JUMPI PUSH1 0x0 DUP2 PUSH1 0x0 SWAP1 SSTORE POP PUSH1 0x1 ADD PUSH2 0x1E2 JUMP JUMPDEST POP SWAP1 JUMP JUMPDEST PUSH1 0x0 PUSH2 0x211 PUSH2 0x20C DUP5 PUSH2 0x361 JUMP JUMPDEST PUSH2 0x33C JUMP JUMPDEST SWAP1 POP DUP3 DUP2 MSTORE PUSH1 0x20 DUP2 ADD DUP5 DUP5 DUP5 ADD GT ISZERO PUSH2 0x22D JUMPI PUSH2 0x22C PUSH2 0x4C0 JUMP JUMPDEST JUMPDEST PUSH2 0x238 DUP5 DUP3 DUP6 PUSH2 0x3B8 JUMP JUMPDEST POP SWAP4 SWAP3 POP POP POP JUMP JUMPDEST PUSH1 0x0 DUP3 PUSH1 0x1F DUP4 ADD SLT PUSH2 0x255 JUMPI PUSH2 0x254 PUSH2 0x4BB JUMP JUMPDEST JUMPDEST DUP2 CALLDATALOAD PUSH2 0x265 DUP5 DUP3 PUSH1 0x20 DUP7 ADD PUSH2 0x1FE JUMP JUMPDEST SWAP2 POP POP SWAP3 SWAP2 POP POP JUMP JUMPDEST PUSH1 0x0 PUSH1 0x20 DUP3 DUP5 SUB SLT ISZERO PUSH2 0x284 JUMPI PUSH2 0x283 PUSH2 0x4CA JUMP JUMPDEST JUMPDEST PUSH1 0x0 DUP3 ADD CALLDATALOAD PUSH8 0xFFFFFFFFFFFFFFFF DUP2 GT ISZERO PUSH2 0x2A2 JUMPI PUSH2 0x2A1 PUSH2 0x4C5 JUMP JUMPDEST JUMPDEST PUSH2 0x2AE DUP5 DUP3 DUP6 ADD PUSH2 0x240 JUMP JUMPDEST SWAP2 POP POP SWAP3 SWAP2 POP POP JUMP JUMPDEST PUSH1 0x0 PUSH2 0x2C2 DUP3 PUSH2 0x392 JUMP JUMPDEST PUSH2 0x2CC DUP2 DUP6 PUSH2 0x39D JUMP JUMPDEST SWAP4 POP PUSH2 0x2DC DUP2 DUP6 PUSH1 0x20 DUP7 ADD PUSH2 0x3C7 JUMP JUMPDEST PUSH2 0x2E5 DUP2 PUSH2 0x4CF JUMP JUMPDEST DUP5 ADD SWAP2 POP POP SWAP3 SWAP2 POP POP JUMP JUMPDEST PUSH2 0x2F9 DUP2 PUSH2 0x3AE JUMP JUMPDEST DUP3 MSTORE POP POP JUMP JUMPDEST PUSH1 0x0 PUSH1 0x20 DUP3 ADD SWAP1 POP DUP2 DUP2 SUB PUSH1 0x0 DUP4 ADD MSTORE PUSH2 0x319 DUP2 DUP5 PUSH2 0x2B7 JUMP JUMPDEST SWAP1 POP SWAP3 SWAP2 POP POP JUMP JUMPDEST PUSH1 0x0 PUSH1 0x20 DUP3 ADD SWAP1 POP PUSH2 0x336 PUSH1 0x0 DUP4 ADD DUP5 PUSH2 0x2F0 JUMP JUMPDEST SWAP3 SWAP2 POP POP JUMP JUMPDEST PUSH1 0x0 PUSH2 0x346 PUSH2 0x357 JUMP JUMPDEST SWAP1 POP PUSH2 0x352 DUP3 DUP3 PUSH2 0x42C JUMP JUMPDEST SWAP2 SWAP1 POP JUMP JUMPDEST PUSH1 0x0 PUSH1 0x40 MLOAD SWAP1 POP SWAP1 JUMP JUMPDEST PUSH1 0x0 PUSH8 0xFFFFFFFFFFFFFFFF DUP3 GT ISZERO PUSH2 0x37C JUMPI PUSH2 0x37B PUSH2 0x48C JUMP JUMPDEST JUMPDEST PUSH2 0x385 DUP3 PUSH2 0x4CF JUMP JUMPDEST SWAP1 POP PUSH1 0x20 DUP2 ADD SWAP1 POP SWAP2 SWAP1 POP JUMP JUMPDEST PUSH1 0x0 DUP2 MLOAD SWAP1 POP SWAP2 SWAP1 POP JUMP JUMPDEST PUSH1 0x0 DUP3 DUP3 MSTORE PUSH1 0x20 DUP3 ADD SWAP1 POP SWAP3 SWAP2 POP POP JUMP JUMPDEST PUSH1 0x0 DUP2 SWAP1 POP SWAP2 SWAP1 POP JUMP JUMPDEST DUP3 DUP2 DUP4 CALLDATACOPY PUSH1 0x0 DUP4 DUP4 ADD MSTORE POP POP POP JUMP JUMPDEST PUSH1 0x0 JUMPDEST DUP4 DUP2 LT ISZERO PUSH2 0x3E5 JUMPI DUP1 DUP3 ADD MLOAD DUP2 DUP5 ADD MSTORE PUSH1 0x20 DUP2 ADD SWAP1 POP PUSH2 0x3CA JUMP JUMPDEST DUP4 DUP2 GT ISZERO PUSH2 0x3F4 JUMPI PUSH1 0x0 DUP5 DUP5 ADD MSTORE JUMPDEST POP POP POP POP JUMP JUMPDEST PUSH1 0x0 PUSH1 0x2 DUP3 DIV SWAP1 POP PUSH1 0x1 DUP3 AND DUP1 PUSH2 0x412 JUMPI PUSH1 0x7F DUP3 AND SWAP2 POP JUMPDEST PUSH1 0x20 DUP3 LT DUP2 EQ ISZERO PUSH2 0x426 JUMPI PUSH2 0x425 PUSH2 0x45D JUMP JUMPDEST JUMPDEST POP SWAP2 SWAP1 POP JUMP JUMPDEST PUSH2 0x435 DUP3 PUSH2 0x4CF JUMP JUMPDEST DUP2 ADD DUP2 DUP2 LT PUSH8 0xFFFFFFFFFFFFFFFF DUP3 GT OR ISZERO PUSH2 0x454 JUMPI PUSH2 0x453 PUSH2 0x48C JUMP JUMPDEST JUMPDEST DUP1 PUSH1 0x40 MSTORE POP POP POP JUMP JUMPDEST PUSH32 0x4E487B7100000000000000000000000000000000000000000000000000000000 PUSH1 0x0 MSTORE PUSH1 0x22 PUSH1 0x4 MSTORE PUSH1 0x24 PUSH1 0x0 REVERT JUMPDEST PUSH32 0x4E487B7100000000000000000000000000000000000000000000000000000000 PUSH1 0x0 MSTORE PUSH1 0x41 PUSH1 0x4 MSTORE PUSH1 0x24 PUSH1 0x0 REVERT JUMPDEST PUSH1 0x0 DUP1 REVERT JUMPDEST PUSH1 0x0 DUP1 REVERT JUMPDEST PUSH1 0x0 DUP1 REVERT JUMPDEST PUSH1 0x0 DUP1 REVERT JUMPDEST PUSH1 0x0 PUSH1 0x1F NOT PUSH1 0x1F DUP4 ADD AND SWAP1 POP SWAP2 SWAP1 POP JUMP INVALID LOG2 PUSH5 0x6970667358 0x22 SLT KECCAK256 PUSH30 0x5EB64E13304759489390938F14DBCC656AEA2AFD37325A8B7AF6D309A25F 0xDB PUSH5 0x736F6C6343 STOP ADDMOD SMOD STOP CALLER "
				},
				"gasEstimates": {
					"creation": {
						"codeDepositCost": "260400",
						"executionCost": "300",
						"totalCost": "260700"
					},
					"external": {
						"getBalance()": "317",
						"getMoney(string)": "infinite",
						"message()": "infinite"
					}
				},
				"methodIdentifiers": {
					"getBalance()": "12065fe0",
					"getMoney(string)": "f219b23c",
					"message()": "e21f37ce"
				}
			},
			"storageLayout": {
				"storage": [
					{
						"astId": 437,
						"contract": "multisig_wallet/Multisig.sol:Receiver",
						"label": "message",
						"offset": 0,
						"slot": "0",
						"type": "t_string_storage"
					}
				],
				"types": {
					"t_string_storage": {
						"encoding": "bytes",
						"label": "string",
						"numberOfBytes": "32"
					}
				}
			},
			"userdoc": {
				"kind": "user",
				"methods": {},
				"version": 1
			}
		}
	}
}